:400000000010002011000000A5040000A504000080B500AF00F04AFA80B584B000AF021CFB1D1A70224A3B1C0B3312781A70214A3B1C0A3312781A701F4B1B68013BFB6091
:400040001AE01E4B1868391C0B31FA68131C5B009B18C31801331B780B70184B1868391C0A31FA68131C5B009B18C31802331B780B70FB68013BFB60FB68002B0ADB0F4B59
:400080001968FA68131C5B009B185B5CFA1D12789A42D6D90A4B3A1C0B3212781A60094B3A1C0A3212781A60BD4604B080BDC046CCF1FF0FCDF1FF0F5C190000D40000206D
:4000C0001CFF0B4020FF0B4080B500AF194B194A12688021C9020A431A600320FFF79CFF154B03221A60052000F016FC134B144A1278D2B21A60052000F0B8FC0D4B0D4A42
:400100001168104A0A401A600F4B20221A600F4B10221A600E4B802212061A600D4B802212061A600C4B0D4A1A600D4B0B4A1A60BD4680BD00010B402CFF0B4028FF0B4030
:40014000D0F1FF0FFFFFFBFF080202400C02024008010B4004010B4000000240010000804000024080B582B000AF72B6FB1D00221A7023E0FB1D1A78131C5B009B185B00EC
:400180002F4A9B183B603B681A78597809020A43997809040A43DB781B0613431A1C3B6819795B791B020B439BB2101C191C00F001FAFB1DFA1D127801321A70FB1D1B7881
:4001C000012BD7D91F4BEE2212041A601E4BEE2212021A601D4B99221A601D4B30221A601C4B902292021A601B4BD82212011A601A4B02221A601A4B31221A60194B022270
:400200001A60194B992212041A60184B992212041A60174B164A1278D2B202210A43D2B21A70134B124A1278D2B206210A43D2B21A70FFF749FF00F0CDF9BD4602B080BD69
:4002400050190000000001400C0001401000014000000440080004400803044000040440080404401804044000500F4030500F4000700F4010B5064C2378002B07D1054830
:40028000002802D0044800E000BF0121217010BD50010020000000000C19000008B5084B002B03D00748084900E000BF07480168002903D0064A002A00D0904708BDC04656
:4002C000000000000C19000054010020C80000200000000080B500AF00F098FA00F008F862B6024B181C00F0FBFAFEE71019000080B500AF00F072F9074B181C052100F0BF
:4003000021FA064B181C052100F03CFA044B181C00F06AF9BD4680BDCC000020880100202503000090B587B000AF584B1B78002B53D000F0E3F9031C102B49D1544B1B78DD
:40034000042B03D8524B1A78524B1A7000F034FA031C012B02D14D4B00221A704D4B1B78DBB21A1C4C4BD2184A4B1B78DBB20521CB1A101C191C00F005FA3B1C173301225A
:400380001A701AE0434B1B78DBB23A1C173212783F49895C3E4AD1543E4B1B78DBB20133DBB23C4A191C1170042B10D83B1C17333A1C1732127801321A703B1C17331C784F
:4003C00000F0FAF9031C013B9C42DBD300E0C04600F0FCF900F09CF92FE000F08FF9031C102B2AD13B1C163300221A701AE0294B1B78DBB23A1C163212782549895C244A44
:40040000D154244B1B78DBB20133DBB2214A191C1170042B10D83B1C16333A1C1632127801321A703B1C16331C7800F0C5F9031C013B9C42DBD300E0C046184B181C00F054
:400440004FFA3B1C153300221A7017E03B1C15331A783B1C15331B780F49CB5CDBB2381C0F4900F04FFE3B1C181C00F039FA3B1C15333A1C1532127801321A703B1C1533C9
:400480001B78042BE2D9BD4607B090BDD1000020880100206C010020CC000020201900004819000080B500AFFEE7C04680B586B000AF254B7B61254B3B61234B7B61234B12
:4004C0003B6132E03B691B68FB603B695B68BB603B699B683B6000237B600CE0FB681A68BB681A60BB680433BB60FB680433FB607B6804337B607A683B689A42EED13B6979
:40050000DB683B6000237B6008E0BB6800221A60BB680433BB607B6804337B607A683B689A42F2D13B6910333B617B695A1E9341DBB27A69013A7A61002BC3D100F0AAFD1B
:40054000FFF7C8FEFEE7C04601000000BC19000080B582B000AF00237B600FE07B68032B04D8104B7A689200D35800E00E4B0F4A796889008B507B6801337B607B682F2B0E
:40058000ECD9FFF7EFFD0A4B00221A608023DB058022D205126801210A431A60BD4602B080BDC04600000000A504000000000020C000002080B582B000AF786039607A683A
:4005C0003B68101C00211A1C00F093FDBD4602B080BDC04680B500AFBD4680BD80B500AF00F00EF8BD4680BD80B582B000AF7860024B7A681A60BD4602B080BD7401002001
:4006000080B500AF244B00221A60244B244A1A60244B244A12680C210A431A60224B234A1A60234B00221A60224B234A1A60234B234A1A60234B00221A600B2000F0F6F90E
:400640000B20032100F09EF91F4B0B20191C00F073F91E4B00221A601D4B00221A601D4B1D4A1A601D4B00221A601D4B00221A601C4B00221A601C4B10221A701B4B002276
:400680001A701B4B00221A601A4B00221A601A4B00221A70BD4680BD0000074060000740770800407000074000030740070300800403074010030740F000FE000002074045
:4006C0000701008004020740950A0000C80E0740880E0740480F07404B010000080F0740C80F0740880F07408D01002098010020900100209C010020B001002080B500AFBE
:40070000024B1B78DBB2181CBD4680BD9801002080B582B000AF0A4B1B78DBB21A1CF02313407B60064B1B78DAB22F231340DAB2034B1A707B68181CBD4602B080BDC04695
:400740009801002080B582B000AF786039607B68002B0BD0074B7A681A60074B3A681A60064B00221A60064B00221A60BD4602B080BDC046AC010020A00100209001002023
:400780009401002080B582B000AF786039607B68002B08D0054B7A681A60054B3A681A60044B00221A60BD4602B080BDA8010020A40100209C01002080B500AF024B1B6823
:4007C000181CBD4680BDC0469C01002080B500AF024B00221A60BD4680BDC0469C01002080B500AF00F028F8BD4680BD80B500AF054B054A1268802109060A431A6000F05A
:4008000017F8BD4680BDC0460000064080B500AF064B1B78002B04D1FFF7E2FF034B01221A70FFF7E3FFBD4680BDC0467801002080B500AFBD4680BD80B500AF174B184A00
:400840001A60184B00221A60174B01221A60174B174A1A60174B07221A60174B00221A60164B01221A60164B114A1A60154B00221A60154B00221A60144B00221A60144B3A
:4008800000221A60134B00221A60134B00221A60124B00221A60BD4680BDC046000006400B0000024000064048000640000306400700008004030640100306404400064002
:4008C0000002064004020640880E0640C80E0640480F0640080F0640C80F0640880F064080B584B000AF78600023FB6009E07A68FB68D3181B78181C00F066FBFB68013342
:40090000FB607A68FB68D3181B78002BEFD1BD4604B080BD000000000230800804D0C0460138FDD1C046C0467047EFF3108072B6704780F31088704780B584B000AF021C13
:400940003960FB1D1A7080239B05FB60FB1D1B781F2B02D9002000F07FF8FB1D1B7810339B00FA68D3181B68BB60FB1D1B7810339B00FA68D3183A681A60BB68181CBD4687
:4009800004B080BD90B587B000AF0A1CFB1D011C1970BB1D1A70BB1D1B78032B02D9002000F05AF8FB1D1B781F2B02D9002000F053F8FB1D1A7803231340DB0006337B61C1
:4009C0003C1C1334FFF7B1FF031C2370FB1D1B789B08DBB29B0014495B181B68FB607B690322111C99400B1CDA43FB681340FB60BB1D1A787B69111C99400B1CFA68134345
:400A0000FB60FB1D1B789B08DBB29B00064A9B18FA681A603B1C13331B78181CFFF789FFBD4607B090BDC04600E400E080B582B000AF021CFB1D1A70064BFA1D11781F224B
:400A40000A400121081C9040021C1A60BD4602B080BDC04680E100E080B582B000AF021CFB1D1A7001BEBD4602B080BD80B582B000AF021CBB1D1A80BB1D1B88044A1278C5
:400A80005343181CFFF748FFBD4602B080BDC046E000002080B582B000AF00233B60D94B1B68002B02D0D74B1B689847D64B1A680123134002D0D54B00221A60D44B1B78E1
:400AC000DAB220231340DBB2002B31D1D14B1A68D14B13402CD0CE4B1B78DAB201231340DBB2002B10D0CD4B1B78DBB202229343DAB2CA4B1A70C94B1B78DBB209221343B8
:400B0000DAB2C64B1A7010E0C44B1B78DBB220229343DAB2C14B1A70C04B1B78DBB2702252421343DAB2BD4B1A70B94B00221A70B74B1B78DAB220231340DBB2002B00D081
:400B40000FE2B34B1B78DAB210231340DBB2002B00D1D8E1AF4B1A680223134056D0B04B02221A60AF4B1A680F231A40AD4B196880231B020B4001D0012300E00023D3187D
:400B80007B60A94B1B78DBB21A1C7B689A4208D9A24B1B78DBB204221343DAB29F4B1A700AE0A14B1B78DBB21A1C7B68D21A9F4B1B68D2189D4B1A609C4B1A689C4B1A6069
:400BC0009C4B00221A60984B00221A709A4B9A4A1268802149020A431A60974B964A1168964A0A401A608D4B1B78DBB202229343DAB28A4B1A70894B1B78DBB201221343C4
:400C0000DAB2864B1A70824B10221A70814B1A680823134048D0824B08221A60884B1A6880239B01134019D00DE0864B1A68864B1B68D218854B1B68DBB21370824B1B68EE
:400C40005A1C814B1A60824B1A680F231340ECD17B4B7B4A11687F4A0A401A607E4B1A682023134007D06D4B1B78DBB240221343DAB26A4B1A70794B00221A60764B784AA0
:400C80001A60664B1B78DBB220229343DAB2634B1A70624B1B78DBB210221343DAB25F4B1A705B4B10221A705A4B1A68402313404DD06C4B1A681023134012D05D4B102221
:400CC0001A605B4B1A68594B1A60544B1B78DBB202221343DAB2514B1A704D4B11221A702CE0614B1A68584B1B68D31A7B607B68072B03D8594B04221A6014E07B68082B8E
:400D000007D14F4B4E4A1268A02109020A431A6009E04B4B4A4A1268802189010A431A604E4B08221A603D4B1B78DBB220221343DAB23A4B1A70364B12221A704B4B01220D
:400D40001A60374B4A4A1A604A4B01221A604A4B1A680823134036D0434B1A683A4B1B68D31A083B7B607B68082B04D908237B6000233B6013E001233B6010E0314B1A6822
:400D8000314B1B68D218314B1B68DBB213702E4B1B685A1C2C4B1A607B68013B7B607B68002BEBD13B68002B09D0254B244A1268802109020A431A60284B00221A60264B22
:400DC00008221A6068E02C4B1A680423134063D01E4B1B687B601C4B1A68234B1B689A424CD2244B01221A60164B1A68164B1B68D3187A68D2B21A70134B1B685A1C124B64
:400E00001A6046E0740100208C0E0740880E07408D0100204C0F07400101000098010020400F074008020740B00100209401002090010020880F074004020740FFFFFEFF70
:400E400060000740A80100209C0100204003074008030740FF5FFFFFC00F0740C80F0740ED0F000064000740A4010020800E0740FF0F00006C000740CC0F07403A4B02220C
:400E80001A603A4B1B78DBB240221343DAB2374B1A70374B04221A60364B1A68102313405FD026E0344B1A68344B1B689A420ED2334B344A1168304A12688A181278D2B20B
:400EC0001A602D4B1B685A1C2B4B1A6011E02C4BFF221A602C4B1B78DAB220231340DBB2002B06D1284B1B78DBB20133DAB2264B1A70264B1A680F231340082BD2D1244B4E
:400F000010221A602DE0234B224A1268520052081A60214B10221A70204B204A1168204A0A401A601D4B1D4A11681E4A0A401A601D4B00221A601D4B00221A60144B1C4A99
:400F40001A600B4B1B4A1A601B4B1C4A1A601C4B1C4A1A600F4B0F4A1268802109060A431A60BD4602B080BD6C00074098010020C00F07408C0F074094010020A0010020C5
:400F800040020740AC010020B001002008020740800F0740000007408D01002060000740FF5FFFFFFFFCFFFFC80F0740880F0740ED0F0000F3070000400F0740FF0F00005C
:400FC000000F07401703000080B582B000AF7860C046064B1A680F231340082BF9D0044B7A681A60BD4602B080BDC0460802064040020640002934D00123002210B48842BD
:401000002CD301242407A14204D2814202D209011B01F8E7E400A14204D2814202D249005B00F8E7884201D3401A1A434C08A04202D3001B5C0822438C08A04202D3001BAB
:401040009C082243CC08A04202D3001BDC082243002803D01B0901D00909E3E7101C10BC7047002801D00020C04307B4024802A14018029003BDC046190000000029F0D087
:4010800003B5FFF7B9FF0EBC4243891A1847C0467047C04670B50E4B0E4D0024E81A85101E1CAC4204D0A100725890470134F8E700F072FC0849094A0E1C541AA51000245D
:4010C000AC4204D0A300F05880470134F8E770BDA4190000A4190000A4190000AC19000010B50023934203D0CC5CC4540133F9E710BD00B58218031C934202D019700133BC
:40110000FAE700BD0EB400B59CB01DAB02A904CB822202900861920009488A810122886048615042074AC88110681D9A019300F063F8029900230B701CB008BC03B01847B6
:40114000FFFFFF7F4C010020F7B501919168071C141C002940D190239289D80002423BD02568216963696E1A58000096C6180098F50FAB1901305D10A84201DB009D0235FE
:40118000381C53050FD5291C00F004FB061E13D02169009AFFF7A4FFA7891649802239401143A18111E02A1C00F04AFB061E0CD1381C216900F0A6FA0C203860A589402654
:4011C0003543A5810124604213E0009B6561F018ED1A26612060A560A668002E08DD694627680A793A70A3680137013B2760A3600020FEBD7FFBFFFFF0B5A1B0049007930F
:401200008B890E1C171C19060FD53269002A0CD1402100F0BFFA30603061002803D1049C0C262660D6E04020706108AD00212024302369616C76AB763C1C2278002A04D107
:40124000E01B069019D003970FE0252AF8D00134F3E70399321C09780498FFF775FF039A01320392013000D1AFE003990698CB1B8342EEDB0D9F3A180D922178002900D100
:40128000A3E001206A4600234742633201342B60EB606F60AB601370AB65504F2178381C052200F0C1FA002807D0C71B2B680120B840184328600134EFE72B68D90603D5FE
:4012C00068462021633001701A0703D56A462B276332177021782A2901D00B9B0EE0079A1068111D0791002801DB0B9004E0022247421343EF602B60013409E02078303836
:40130000092804D80A277B4301341B18F6E70B9323782E2B18D161782A2909D1079B02341A68191D0791002A0DDA012042420AE00134002220783038092804D80A277A43D1
:4013400001341218F6E70992254F2178381C032200F06AFA002806D02B68C21B4021914019432960013421781E4806222976671C00F05AFA002817D01B4800280BD128686F
:40138000079C0723C10501D5E41800E007349C430834079414E007AA00920498291C321C124B00E000BF07E007AC00940498291C321C0E4B00F08CF8059005994A1C04D0FE
:4013C0000D99059A8C180D9436E7B589690601D40D9801E00127784221B0F0BD62190000681900006C1900000000000049110000F7B5151C01930A698B6800900C1C93429F
:4014000000DA131C201C2B6043300178002901D001332B602668B00602D52F6802372F602268062616401CD0261C4336377822683E1C731E9E4192061CD5A319181C40301E
:401440003021271CC17045373A784133DA70023610E0617E0098019A089FB847013006D00136E3682868191A8E42F2DBDCE7012040422CE00027B7420ADAE119433109788D
:401480000098019A089B98470130F0D00137F2E72B68256806212940E6680025042903D1F01AC743FD170540A2682669B24201DD931BED180027AF4208DAA17E0098019A7A
:4014C000089EB0470130D2D00137F4E70020FEBDF0B50D1C8BB0433507930590069204950A7E0C1C109B6E2A00D1A8E012D8632A24D009D8002A00D1B1E0582A00D0C1E096
:4015000045310A707D4D51E0642A1FD0692A00D0B8E01BE0732A00D1A5E009D86F2A2BD0702A00D0AEE00A68202616430E6038E0752A21D0782A00D0A4E032E018680E1C14
:40154000051D1D600368423633709EE026681F68300606D4750604D5381D186000203D5E02E03D1D1D603D68644B002D3BDA04992D226D420A7036E027681E683D0605D41C
:40158000780603D5351D1D60358802E0311D196035685A4B207E039308276F281ED00A271CE0271C45377820554D38701A682668111D03951960300603D4750601D515885E
:4015C00000E01568F00702D520231E4326601027002D03D12668202086432660261C43360022327001E003930A276168A160002903DB2068042398432060002D02D1049E9D
:4016000000290ED0049E281C391CFFF737FD039A013E515C281C3170391CFFF7EBFC051EF1D1049B9A1B2261082F33D12768F80730D5606890422DDC013262602AE0086802
:401640001E684969050606D4450604D5351D1D603368198003E0321D1A603768396000202061049E16E01E68311D19603668301C00F01EF965682061A84200D925612369A8
:40168000636004E0261C4236327001212161049F00223A7007990598009109AA211C069BFFF7A6FE01300CD0351C2269AB1B93420ADA29780598069A079FB84701350130C9
:4016C000F3D10122504217E02668B10705D4099BE068984210DA181C0EE00025E7680998391A8D42F3DA617E0598069A079EB0470130E6D00135F1E70BB0F0BD73190000E4
:401700008419000030B5002940D004390B68002B00DAC9181E4A1368141C002B02D14B60116033E099420FD20D684A199A4205D110682B1855680B604D6000E04B60216036
:4017400024E08A4203D8131C5A68002AF9D11D685C198C420BD10C682D1958191D60904214D1116852686C181C605A600EE08C4202D90C21016009E008680D18954203D19B
:4017800014685268001908604A60596030BDC0468001002070B50323CD1C9D430835061C0C2D01D20C2501E0002D2DDB8D422BD31C4A1368111C1C1C002C12D02068421BAF
:4017C0000CD40B2A02D92260A41815E0A34202D166680E601CE065685D6019E0231C6468EAE7301C291C00F051F8421C0CD0C41C03218C43844201D1256009E0211A301C13
:4018000000F044F80130F7D10C243460002008E0201C0B300722211D9043431A01D05D42E55070BD8001002000B5C9B28218904204D003788B4202D00130F8E7002000BDBF
:40184000F8B5061C0C1C151C002904D1111CFFF7A1FF041C18E0002A03D1FFF753FF2C1C12E000F02CF8A8420ED2301C291CFFF791FF071E07D0211C2A1CFFF731FC301C04
:40188000211CFFF73FFF3C1C201CF8BD38B5074C0023051C081C236000F01CF8431C03D12168002900D0296038BDC046B40100200023C25C0133002AFBD1581E704704395C
:4018C0000B6800B5181F002B02DAC8581918081F00BD00000A4A00B51368002B0CD018186946884202D81060181C00BD054B0C2201201A604342F7E7034B1360EFE7C046C5
:4019000084010020B4010020B80100200000000048656C6C6F20576F726C640A00000000493243204953522066696E69736865642E20526567697374657220636F6E74652C
:401940006E74733A0A00000025643A2025640A0000300F40000400400F400004040000004300232D302B2000686C4C00656667454647003031323334353637383941424339
:40198000444546003031323334353637383961626364656600000000F8B5C046F8BC08BC9E4670479D02000051050000F8B5C046F8BC08BC9E46704775020000D019000015
:4019C000C800002088000000680000000000000000000000FB00FF0000010000C0F1FF0FC0C62D00B80B0000030000000000DC0500000000000000000000000000000000FB
:401A0000000000000000000000000000000000006019000000000000000000000000000000000000000000000000000000000000000000000000000000000000000000002D
:401A40000000000000000000000000000000000000000000E8000020000000000000000000000000000000000000000000000000000000000000000000000000000000005E
:401A80000000000000000000000000000000000000000000000000000000000000000000000000000000000000000000000000000000000000000000000000000000000026
:401AC00000000000000000000000000000000000000000000000000000000000000000000000000000000000000000000000000000000000000000000000000000000000E6
:401B000000000000000000000000000000000000000000000000000000000000000000000000000000000000000000000000000000000000000000000000000000000000A5
:401B40000000000000000000000000000000000000000000000000000000000000000000000000000000000000000000000000000000000000000000000000000000000065
:0200000490303A
:0200000038B412
:0200000490402A
:200000000000000000000000000000000000000000000000000000000000000000000000E0
:0200000490501A
:0C000000000204C81193110104D04A470B
:0200000490600A
:0100000001FE
:00000001FF