:400000000010002011000000590300005903000080B500AF00F0A4F980B584B000AF021CFB1D1A70224A3B1C0B3312781A70214A3B1C0A3312781A701F4B1B68013BFB60D2
:400040001AE01E4B1868391C0B31FA68131C5B009B18C31801331B780B70184B1868391C0A31FA68131C5B009B18C31802331B780B70FB68013BFB60FB68002B0ADB0F4B59
:400080001968FA68131C5B009B185B5CFA1D12789A42D6D90A4B3A1C0B3212781A60094B3A1C0A3212781A60BD4604B080BDC046CCF1FF0FCDF1FF0FDC0E0000CC00002000
:4000C0001CFF0B4020FF0B4080B500AF1A4B1A4A12688021C9020A431A600320FFF79CFF164B03221A60052000F056FB144B154A1278D2B21A60052000F00EFC0E4B0E4AA6
:400100001168114A0A401A60104B20221A60104B10221A600F4B802212061A600E4B802212061A600D4B802212061A600C4B0D4A1A60BD4680BDC04600010B402CFF0B4032
:4001400028FF0B40D0F1FF0FFFFFFBFF080202400C02024008010B4004010B4000000240400002400100008080B582B000AF72B6FB1D00221A7023E0FB1D1A78131C5B0088
:400180009B185B003C4A9B183B603B681A78597809020A43997809040A43DB781B0613431A1C3B6819795B791B020B439BB2101C191C00F059F9FB1DFA1D127801321A70BA
:4001C000FB1D1B78012BD7D92C4A2D4B101C191C00F05AF92B4BEE2212041A602A4BEE2212021A60294B99221A60294B30221A60284B294A1A60294B01221A60284B0122CD
:400200001A60284B01221A60274BD82212011A60264B02221A60264B31221A60254B02221A60254B992212041A60244B802292021A60234B992212041A60224B80229202AA
:400240001A60214B992212041A60204B1F4A1278D2B202210A43D2B21A701C4B1B4A1278D2B206210A43D2B21A70FFF72DFF00F04BF9BD4602B080BDC80E0000D40E000091
:40028000D80E0000000001400C000140100001400000044008000440014002000C000440080104400C0104400803044000040440080404401804044000500F4004500F402F
:4002C00010500F4014500F4030500F4000700F4010B5064C2378002B07D10548002802D0044800E000BF0121217010BDE000002000000000B40E000008B5084B002B03D0D7
:400300000748084900E000BF07480168002903D0064A002A00D0904708BDC04600000000B40E0000E4000020C80000200000000080B500AF00F0AAF900F008F862B6024B64
:40034000181C00F00DFAFEE7B80E000080B500AF00F0F4F8BD4680BD80B500AFFEE7C04680B586B000AF254B7B61254B3B61234B7B61234B3B6132E03B691B68FB603B69DA
:400380005B68BB603B699B683B6000237B600CE0FB681A68BB681A60BB680433BB60FB680433FB607B6804337B607A683B689A42EED13B69DB683B6000237B6008E0BB68A7
:4003C00000221A60BB680433BB607B6804337B607A683B689A42F2D13B6910333B617B695A1E9341DBB27A69013A7A61002BC3D100F030FDFFF79CFFFEE7C0460100000041
:40040000040F000080B582B000AF00237B600FE07B68032B04D8104B7A689200D35800E00E4B0F4A796889008B507B6801337B607B682F2BECD9FFF797FE0A4B00221A6078
:400440008023DB058022D205126801210A431A60BD4602B080BDC046000000005903000000000020C000002080B582B000AF786039607A683B68101C00211A1C00F010FD3D
:40048000BD4602B080BDC04680B586B000AF7860396000233B6100237B612EE07B699B007A68D3181B68BB603B1C0F33BA681A70BB68FF229343BB6017E03B695B003A68F1
:4004C000D3181B781A1CBB68D3183A69520039688A1852781A703B6901333B613B1C0F333A1C0F321278013A1A703B1C0F331B78002BE2D17B6901337B617B69002BCDD011
:40050000BD4606B080BDC04680B500AFBD4680BD80B500AF00F02CF8BD4680BD80B500AF054B054A1268802109060A431A6000F017F8BD4680BDC0460000074080B500AF7F
:40054000064B1B78002B04D1FFF7E2FF034B01221A70FFF7E3FFBD4680BDC046FC00002080B500AF0B2000F0A1F9BD4680BDC04680B500AF234B00221A60234B234A1A6069
:40058000234B234A12680C210A431A60214B224A1A60224B00221A60214B00221A60214B214A1A60214B00221A600B2000F094F90B20032100F026F91D4B0B20191C00F078
:4005C000FBF81C4B00221A601B4B00221A601B4B00221A601A4B1B4A1A601B4B00221A601A4B00221A601A4B10221A70194B00221A80194B00221A60184B00221A60BD4677
:4006000080BDC046000007406000074077080080700007400003074007030080040307401003074000020740070100800402074041090000C80E0740880E0740480F074057
:40064000080F074013010000C80F0740880F07400C0100201C0100202C0100201401002080B500AF00F028F8BD4680BD80B500AF054B054A1268802109060A431A6000F088
:4006800017F8BD4680BDC0460000064080B500AF064B1B78002B04D1FFF7E2FF034B01221A70FFF7E3FFBD4680BDC0460401002080B500AFBD4680BD80B500AF174B184AF6
:4006C0001A60184B00221A60174B01221A60174B174A1A60174B07221A60174B00221A60164B01221A60164B114A1A60154B00221A60154B00221A60144B00221A60144BBC
:4007000000221A60134B00221A60134B00221A60124B00221A60BD4680BDC046000006400B0000024000064048000640000306400700008004030640100306404400064083
:400740000002064004020640880E0640C80E0640480F0640080F0640C80F0640880F064080B584B000AF78600023FB6009E07A68FB68D3181B78181C00F056FBFB680133D3
:40078000FB607A68FB68D3181B78002BEFD1BD4604B080BD000000000230800804D0C0460138FDD1C046C0467047EFF3108072B6704780F31088704780B584B000AF021C95
:4007C0003960FB1D1A7080239B05FB60FB1D1B781F2B02D9002000F095F8FB1D1B7810339B00FA68D3181B68BB60FB1D1B7810339B00FA68D3183A681A60BB68181CBD46F3
:4008000004B080BD90B587B000AF0A1CFB1D011C1970BB1D1A70BB1D1B78032B02D9002000F070F8FB1D1B781F2B02D9002000F069F8FB1D1A7803231340DB0006337B6116
:400840003C1C1334FFF7B1FF031C2370FB1D1B789B08DBB29B0014495B181B68FB607B690322111C99400B1CDA43FB681340FB60BB1D1A787B69111C99400B1CFA681343C6
:40088000FB60FB1D1B789B08DBB29B00064A9B18FA681A603B1C13331B78181CFFF789FFBD4607B090BDC04600E400E080B582B000AF021CFB1D1A70064BFA1D11781F22CD
:4008C0000A400121081C9040021C1A60BD4602B080BDC04600E100E080B582B000AF021CFB1D1A70064BFA1D11781F220A400121081C9040021C1A60BD4602B080BDC0464F
:4009000080E100E080B582B000AF021CFB1D1A7001BEBD4602B080BD80B582B000AF021CBB1D1A80BB1D1B88044A12785343181CFFF732FFBD4602B080BDC046D800002015
:4009400080B582B000AF00233B60C24B1B68002B02D0C04B1B689847BF4B1A680123134002D0BE4B00221A60BD4B1B78DAB220231340DBB2002B3CD0BA4B1A6880235B0029
:4009800013400AD0B84B1B889BB2C022920013439AB2B54B1A8001233B60B24B1A68012313400AD0B04B1B889BB29022920013439AB2AD4B1A8001233B603B68002B18D000
:4009C000A74B1B78DAB201231340DBB2002B01D0012300E00223A44A128892B291B21A1C0B1C13439BB29AB29F4B1A809C4B00221A709B4B1B78DAB220231340DBB2002BF8
:400A000000D1AAE1974B1A68102313401CD0974B10221A60924B1B78DAB201231340DBB2002B01D0012300E002238F4A128892B291B21A1C0B1C13439BB29AB28A4B1A801C
:400A4000874B10221A70BEE1854B1B78DAB208231340DBB2002B29D0824B1A68022313400ED0824B02221A607F4B1B889BB28822920013439AB27C4B1A8001233B6015E06E
:400A8000774B1B78DAB201231340DBB2002B03D0734B25221A7009E0714B24221A70744B1B68002B02D0734B10221A606C4B1B78DAB204231340DBB2002B00D111E1684B28
:400AC0001B78DAB201231340DBB2002B5BD06A4B1A680823134033D0684B1A68684B19680F231940674B1B68CB18D31A7B607B68082B02D908237B601EE07B68002B1BD102
:400B0000614B614A1168614A0A401A6008237B6001233B6010E05E4B1A685A4B1B68D2185C4B1B68DBB21370564B1B685A1C554B1A607B68013B7B607B68002BEBD11EE0D4
:400B40004D4B1A680423134019D0514B1A684D4B1B68D2184F4B1B68DBB21370494B1B685A1C484B1A60474B1A68444B1B689A4203D2494B04221A6001E001233B60474BD1
:400B8000474A1A60ADE0374B1A680223134032D0364B02221A60434B1A68434B19680F231940414B186880231B02034001D0012300E00023CB18D21A3A4B1A60394B1A687B
:400BC0003A4B1A60284B1B889BB28422920013439AB2254B1A80364B354A1268802149020A431A60324B324A1168324A0A401A6001233B6075E0304B1A681023134065D004
:400C000013E0284B1A681A4B1B689A4214D22B4B2B4A1168234A12688A181278D2B21A60204B1B685A1C1F4B1A601F4B1A680F231340082BE5D100E0C0461A4B1A680C4BE7
:400C40001B689A4202D10B4B40221A601D4B1E4A1A6046E0000100208C0E0740880E07400C0100200C0F07401C010020000F074018010020880F0740CC0F0740280100201D
:400C8000080307402C01002060000740FFFEFFFF200100204003074068000740C00F0740ED0F000010010020080207401401002004020740FFFFFEFF8C0F074040020740FD
:400CC00030010020800F0740F30700003F4B1A684023134005D03E4B1A683E4B1A6001233B603B68002B6ED03B4B3B4A11683B4A0A401A603A4B00221A603A4B00221A6054
:400D0000394B1B78DAB202231340DBB2002B19D0364B1B78DAB201231340DBB2002B01D0092300E00A23324A128892B291B21A1C0B1C13439BB29AB22D4B1A802B4B60222B
:400D40001A7040E02B4B2C4A116820220A4001D0182200E010221A6035E0244B1B78DAB210231340DBB2002B2DD1244B234A1268520052081A601D4B10221A70164B164A01
:400D800011681F4A0A401A60134B134A11681D4A0A401A60124B00221A60124B00221A60194B1A4A1A601A4B1A4A1A601A4B1B4A1A601B4B1B4A1A60104B104A126880215E
:400DC00009060A431A60BD4602B080BD8C0F0740100100201401002060000740FFFEFFFFC80F0740880F0740240100200C0100201C010020680007406400074000000740F5
:400E0000FF5FFFFFFFFCFFFF800F0740ED0F0000C00F0740F3070000400F0740FF0F0000000F07401703000080B582B000AF7860C046064B1A680F231340082BF9D0044BD0
:400E40007A681A60BD4602B080BDC046080206404002064070B50E4B0E4D0024E81A85101E1CAC4204D0A100725890470134F8E700F036F80849094A0E1C541AA51000242D
:400E8000AC4204D0A300F05880470134F8E770BDEC0E0000EC0E0000EC0E0000F40E000000B58218031C934202D019700133FAE700BD00000000000048656C6C6F20576F43
:400EC000726C640A0000000000300F40000400400F40000402600F400201110104000000F8B5C046F8BC08BC9E467047F902000005040000F8B5C046F8BC08BC9E46704736
:400F0000D1020000180F0000C800002018000000580000000000000000000000C0F1FF0FC0C62D00B80B0000030000000000DC050000000000000000000000000000000046
:400F40000000000000000000000000000000000000000000000000000000000000000000000000000000000000000000000000000000000000000000000000000000000071
:400F80000000000000000000000000000000000000000000000000000000000000000000000000000000000000000000000000000000000000000000000000000000000031
:400FC00000000000000000000000000000000000000000000000000000000000000000000000000000000000000000000000000000000000000000000000000000000000F1
:4010000000000000000000000000000000000000000000000000000000000000000000000000000000000000000000000000000000000000000000000000000000000000B0
:0200000490303A
:02000000A181DC
:0200000490402A
:200000000000000000000000000000000000000000000000000000000000000000000000E0
:0200000490501A
:0C000000000204C81193110104CCB314D9
:0200000490600A
:0100000001FE
:00000001FF