:400000000010002011000000E9070000E907000080B500AF00F016FC80B584B000AF021CFB1D1A70204A3B1C0B3312781A701F4A3B1C0A3312781A700423013BFB6018E007
:400040001B4B1868391C0B31FA68131C5B009B18C3185B780B70164B1868391C0A31FA68131C5B009B18C3189B780B70FB68013BFB60FB68002B0ADB0D4B1968FA68131CF1
:400080005B009B185B5CFA1D12789A42D8D9094B3A1C0B3212781A60074B3A1C0A3212781A60BD4604B080BDCCF1FF0FCDF1FF0FD00000201CFF0B4020FF0B4080B500AF4B
:4000C000184B184A12688021C9020A431A603020FFF7A2FF144B154A1278D2B21A60052001F02CF9124B35221A60124B124A1A60124B20221A60124B30221A60114B802285
:4001000012061A60074B8022D2021A600E4B0F4A1A600F4B0F4A1A600F4B104A1A60BD4680BDC04600010B4028FF0B40FDF1FF0F2CFF0B4004010B400600008008020240CC
:400140000C02024008010B4000000240010000804000024005000080800002402200008080B582B000AF72B6414B01221A70FB1D00221A7023E0FB1D1A78131C5B009B1888
:400180005B003C4A9B183B603B681A78597809020A43997809040A43DB781B0613431A1C3B6819795B791B020B439BB2101C191C00F0C6FBFB1D1A78FB1D01321A70FB1DDD
:4001C0001B78012BD7D92C4A2C4B101C191C00F0C7FB2B4B992212041A602A4BEE2212021A60294BEE221A60284B20221A60284BC42292021A60274B20221A60264BD8228F
:4002000012011A60254B03221A60254B24221A60244B992212041A60234B992212041A60224B01221A60224B02221A60214B214A1278D2B202210A43D2B21A701E4B1E4A36
:400240001278D2B23C218A43D2B214210A43D2B21A70184B174A1278D2B216210A43D2B21A70FFF72BFF00F0BBFBBD4602B080BD1C700F40F02C0000FC2C00001C2D0000AE
:40028000000001400C0001401000014000000440080004401800044008030440000404400804044000500F4030500F402000004000800F4000700F4001700F4010B5064C59
:4002C0002378002B07D1054B002B02D0044800E000BF0123237010BD4801002000000000A02C000008B5084B002B03D00748084900E000BF07480368002B03D0064B002BEE
:4003000000D0984708BDC04600000000A02C00004C010020C80000200000000090B589B000AF00F097FE00F075FB01F0AFF84A4B181C00F0F9FE494B6820191C052200F060
:40034000ABF8474B181C00F0EFFE464B181C01F009F80023FB6162B6C046434B1B78DBB2002BFAD0414B181C00F01AF9404B181C00F03AF93D4B1A68A4235B00101C191C0E
:4003800000F09AF9021C3B4B1B68D218394B1A60384B1A68384B9A4206DA364B1B68B42149045A18334B1A60324B1A68B4231B049A4205DD2F4B1B6830495A182D4B1A604A
:4003C0002B4B1B68181C00F067F9041C284B5B68181C00F061F9031CE318BB6100237B61BA69274B9A4225DDBA69264B9A4221DC1F4B5A681E4B1B68101C191C00F096F99F
:40040000031C214A9B18181C00F0DCF9031C7B61184B1B681D4A101C191C00F04DF9041C1B4A7B69101C191C00F046F9031CE218104B1A600F4B1B68391D164A081C111CDC
:400440001A1C02F029F83B1D181C00F06DFE064B00221A70C0467FE7B82C0000AC2C0000C42C0000710600006401002070010020680100207C01002000004CFF000098FEA3
:4004800033F30000CC4C01002092010066E600009A190000D02C000080B584B000AF3960FB1D011C1970BB1D1A700023FB6013E0FB685B003A68D3181A78FB685B003968D1
:4004C000CB185B78F91D0978081C111C1A1C00F03FF8FB680133FB60BB1D1A78FB689A42E6DCBD4604B080BD80B584B000AF0A1CFB1D011C1970BB1D1A70FB1D1B78181C73
:40050000002100F015FB031C002B19D1BB1D1B78181C00F077FC031C002B11D1FB1D1B78181C012100F08CFB031C002B08D1012000F0CEFC021C3B1C0F331A7000F004FC91
:400540003B1C0F331B78181CBD4604B080BDC04680B582B000AFFB1D1870BB1D19707B1D1A70FB1D1B78181C002100F0E1FA031C002B11D1BB1D1B78181C00F043FC031C04
:40058000002B09D17B1D1B78181C00F03BFC031C002B01D100F0D8FBBD4602B080BDC04690B585B000AF786068204421FFF79CFF031C1C1C68204321FFF796FF031C1B0250
:4005C0009BB2E3189AB23B1C0E331A803B1C0E3300229B5E034A5A437B681A60BD4605B090BDC0469C0F000090B585B000AF786068203E21FFF778FF031C1C1C68203D21F3
:40060000FFF772FF031C1B029BB2E3189AB23B1C0E331A8068204021FFF766FF031C1C1C68203F21FFF760FF031C1B029BB2E3189AB23B1C0C331A803B1C0E3300215B5E07
:40064000DA007B681A607B6804333A1C0C320021525ED2001A60BD4605B090BD80B582B000AF78607B68181C00F05EFDFEE7C04680B500AF064B1B78DBB2012B03D1054B93
:40068000181CFFF7EBFF024B01221A70BD4680BD64010020D82C000080B582B000AF78607B68002B02DA7B685B4200E07B68181CBD4602B080BDC046B0B584B000AFF8607C
:4006C000B960F9683960C9177960B9680A1CC9170B1C3868796801F08DFA021C0B1C1904140C0C431D14231C181CBD4604B0B0BDF0B585B000AFF860B960FA68151CD217D8
:40070000161C2A0C340414432B04BA683A60D2177A60181C211C3A687B6801F047FA031C0C1C181CBD4605B0F0BDC04680B586B000AF786039607B68181CFFF7ADFF031CA3
:4007400001333B613B68002B16DB3A683B69D21A39683B69CB18101C191CFFF7C9FF031CFB60164AFB68101C191CFFF7A5FF031C124AD31A7B6115E03A683B69D21839692E
:400780003B68CB1A101C191CFFF7B2FF031CBB600A4ABB68101C191CFFF78EFF031C084AD31A7B617B68002B02DA7B695B4200E07B69181CBD4606B080BDC04610C90000A2
:4007C000305B020080B582B000AF78607A68054B101C191CFFF770FF031C181CBD4602B080BDC046B84B390080B500AFFEE7C04680B584B000AF7860104B1A687B68D31895
:400800001A1C0F4BD21A80235B009A4209DC0B4B1B68FB60094B1A687B68D218074B1A6007E001F0FBFD031C0C221A6001235B42FB60FB68181CBD4604B080BDCC000020B0
:40084000C801002080B586B000AF224B7B61224B3B61204B7B6135E03B691B68FB603B695B68BB603B699B683B6000237B600CE0FB681A68BB681A60BB680433BB60FB683D
:400880000433FB607B6804337B607A683B689A42EED13B69DB683B6000237B6008E0BB6800221A60BB680433BB607B6804337B607A683B689A42F2D13B6910333B617B6975
:4008C000013B7B617B69002BC6D101F0ADFDFFF725FDFEE701000000502E000080B582B000AF00237B600FE07B68032B04D8104B7A689200D35800E00E4B0F4A796889003D
:400900008B507B6801337B607B682F2BECD9FFF727FC0A4B00221A608023DB058022D205126801210A431A60BD4602B080BDC04600000000E907000000000020C000002097
:4009400080B582B000AF786039607A683B68101C00211A1C01F097FDBD4602B080BDC04680B586B000AF7860396000233B6100237B612EE07B699B007A68D3181B68BB602A
:400980003B1C0F33BA681A70BB68FF229343BB6017E03B695B003A68D3181B781A1CBB68D3183A69520039688A1852781A703B6901333B613B1C0F331A783B1C0F33013A64
:4009C0001A703B1C0F331B78002BE2D17B6901337B617B69072BCDD9BD4606B080BDC04680B500AFBD4680BD80B500AF00F02CF8BD4680BD80B500AF054B054A12688021BD
:400A000009060A431A6000F017F8BD4680BDC0460000064080B500AF064B1B78002B04D1FFF7E2FF034B01221A70FFF7E3FFBD4680BDC0468001002080B500AF0A2000F0FE
:400A400047FCBD4680BDC04680B500AF234B234A12680C210A431A60214B00221A60214B214A1A60214B224A1A60224B00221A60214B00221A60214B1D4A1A60204B00222A
:400A80001A600A2000F03AFC0A20032100F0CCFB1C4B0A20191C00F0A1FB1B4B00221A601A4B00221A601A4B00221A60194B1422FF321A60184B00221A60184B00221A60CE
:400AC000174B10221A70174B00221A80164B00221A60164B00221A60BD4680BD700006400000064060000640C70800800003064007010080040306401003064000020640D0
:400B00000402064059150000C80E0640880E0640480F0640080F0640C80F0640880F06409C010020AC010020BC010020A401002080B584B000AF786039600023FB600423B5
:400B4000BB60384B1B78DBB2102B66D1364B1A680123134002D00823BB605EE00A2000F0CDFB7B685A00FF2313407B603B68002B03D12C4B24221A7006E02A4B25221A70F1
:400B80007B68012213437B60284B7A681A60284B284A1A60284B02221A60C046244B1A680823FF331340F9D0214B1A680423134002D00023BB601CE01D4B1A680223134079
:400BC00002D00223BB6014E0194B1A680123134007D0144B10221A700123BB600123FB6007E0104B10221A7080235B00BB600123FB600F4B0822FF321A60FB68002B0CD0B3
:400C00000E4B0E4A1268520052081A600B4B0B4A1268802109060A431A60BB68181CBD4604B080BD9C0100206400064040020640000F06401703000068000640000006402A
:400C400080B584B000AF786039600023FB600423BB60374B1B78DAB220231340DBB2002B60D07B685A00FF2313407B603B68002B03D12F4B24221A7006E02D4B25221A7064
:400C80007B68012213437B602A4B2B4A1A6000F073F9C046294B1A6801231340FAD1284B7A681A60C046234B1A680823FF331340F9D0204B1A680423134002D00023BB604A
:400CC0001CE01C4B1A680223134002D00223BB6014E0184B1A680123134007D0144B10221A700123BB600123FB6007E0104B10221A7080235B00BB600123FB600D4B08226D
:400D0000FF321A60FB68002B0CD00E4B0D4A1268520052081A600B4B0A4A1268802109060A431A60BB68181CBD4604B080BDC0469C010020000F0640170300006800064088
:400D4000400206400000064080B582B000AF00237B6004233B60264B1B78DAB220231340DBB2002B3ED0234B234A116820220A4001D0182200E010221A60C0461F4B1A687A
:400D80001223FF331340F9D01C4B1A681023134002D000233B600EE0184B1A680123134004D001233B6001237B6004E080235B003B6001237B60114B1222FF321A600C4BC7
:400DC00010221A707B68002B0CD00D4B0C4A1268520052081A600A4B094A1268802109060A431A603B68181CBD4602B080BDC0469C0100206800064064000640000F06402D
:400E00000000064080B584B000AF78600023FB600423BB602A4B1B78DAB220231340DBB2002B48D0274B7A681A60C046264B1A680823FF331340F9D0234B1A680423134018
:400E400005D01F4B60221A700023BB601FE01E4B1A680223134005D0194B60221A700223BB6014E0184B1A680123134007D0144B10221A700123BB600123FB6007E0104BC0
:400E800010221A7080235B00BB600123FB600E4B0822FF321A60FB68002B0CD00B4B0B4A1268520052081A60084B084A1268802109060A431A60BB68181CBD4604B080BD1A
:400EC0009C01002040020640000F06400000064080B584B000AF786001235B42FB601F4B1B78DAB220231340DBB2002B31D0C0461B4B1A680423134005D11A4B1A680223E4
:400F0000FF331340F4D0164B1A680423134010D0154B1B68FB60124B04221A607B68002B03D1124B04221A6013E00C4B60221A700FE00C4B0E4A1A600E4B0E4A1268520026
:400F400052081A600B4B0B4A1268802109060A431A60FB68181CBD4604B080BD9C010020C00F0640000F06404003064068000640170300000000064080B582B000AF264B31
:400F80001B687B60C04600F0E9F8031C002BFAD0002000F0F1F8214B204A12680F218A431A601F4B1E4A1268520052081A607A682023134011D0002000F0DEF8032000F064
:400FC000BDF9012000F0D8F8C04600F0F9F8031C002BFAD0032000F0B1F9002000F0CCF8032000F0ABF90F4B01221A600C4B0C4A1268802109060A431A60084B074A126864
:401000000F218A430E210A431A60012000F0B4F8BD4602B080BDC0466400064010000140000006406800064080B500AF00F028F8BD4680BD80B500AF054B054A1268802147
:4010400009060A431A6000F017F8BD4680BDC0460000074080B500AF064B1B78002B04D1FFF7E2FF034B01221A70FFF7E3FFBD4680BDC0468801002080B500AFBD4680BD89
:4010800080B500AF174B184A1A60184B00221A60174B01221A60174B174A1A60174B07221A60174B00221A60164B01221A60164B114A1A60154B00221A60154B00221A60A4
:4010C000144B00221A60144B00221A60134B00221A60134B00221A60124B00221A60BD4680BDC046000007400B00000240000740480007400003074007000080040307403E
:4011000010030740440007400002074004020740880E0740C80E0740480F0740080F0740C80F0740880F074080B584B000AF78600023FB6009E07A68FB68D3181B78181CF4
:4011400000F080FCFB680133FB607A68FB68D3181B78002BEFD1BD4604B080BD80B500AF044B1A68022313405B08DBB2181CBD4680BDC0460404044080B584B000AF021C56
:40118000FB1D1A700D4B1B68DAB23B1C0F3301218A431A70FB1D1A7801231340D9B23B1C0F333A1C0F3212780A431A70034B3A1C0F3212781A60BD4604B080BD00040440B2
:4011C00080B500AF044B1B68DAB201231340DBB2181CBD4680BDC0460404044080B584B000AF021C3960FB1D1A7080239B05FB60FB1D1B781F2B02D9002000F095F8FB1D4F
:401200001B7810339B00FA68D3181B68BB60FB1D1B7810339B00FA68D3183A681A60BB68181CBD4604B080BD90B587B000AF0A1CFB1D011C1970BB1D1A70BB1D1B78032B0B
:4012400002D9002000F070F8FB1D1B781F2B02D9002000F069F8FB1D1A7803231340DB0006337B613C1C133400F00CFC031C2370FB1D1B789B08DBB29B0014495B181B68B5
:40128000FB607B690322111C99400B1CDA43FB681340FB60BB1D1A787B69111C99400B1CFA681343FB60FB1D1B789B08DBB29B00064A9B18FA681A603B1C13331B78181C28
:4012C00000F0E4FBBD4607B090BDC04600E400E080B582B000AF021CFB1D1A70064BFA1D11781F220A400121081C9040021C1A60BD4602B080BDC04600E100E080B582B02E
:4013000000AF021CFB1D1A70064BFA1D11781F220A400121081C9040021C1A60BD4602B080BDC04680E100E080B582B000AF021CFB1D1A7001BEBD4602B080BD80B582B0ED
:4013400000AF021CBB1D1A80BB1D1B88044A12785343181C00F08CFBBD4602B080BDC046DC00002080B582B000AF786000F04AF87B68181C00F008F8032000F011F800F073
:4013800037F8BD4602B080BD80B582B000AF7860024B7A681A64BD4602B080BD0000002090B585B000AF021CFB1D1A700623FB603C1C0B3400F066FB031C23700B4B0B4AAD
:4013C0001268C021101C8843011CFA1D1078FA68041C9440221C0A431A603B1C0B331B78181C00F053FBBD4605B090BD00E400E080B500AF024B01221A60BD4680BDC0460D
:4014000000E100E080B500AF024B01221A60BD4680BDC04680E100E090B583B000AF114B181C00F05FF80F4B181C00F077F8FC1D00F028FB031C23700B4B0B4A1278D2B214
:4014400010210A43D2B21A70FB1D1B78181C00F01DFB00F073F8002000F02AF8BD4603B090BDC046FFED020092000F4080B500AF054B054A1278D2B2802149420A43D2B206
:401480001A70BD4680BDC04671000F4080B500AF064B1B78002B04D1FFF7BEFF034B01221A70FFF7E3FFBD4680BDC0469001002080B582B000AF021CFB1D1A70034BFA1D1C
:4014C00012781A70BD4602B080BDC04682000F4080B500AF024B1B78DBB2181CBD4680BD62000F4080B582B000AF7860044A7B68101C191C00F0D0FABD4602B080BDC04667
:4015000020000F4080B500AF034B181C00F0DEFA031C181CBD4680BD40000F4080B582B000AF7860044A7B68101C191C00F0B4FABD4602B080BDC04600000F4080B500AFA3
:4015400001E0FFF7DFFFFFF7C3FF031C1A1C08231340F6D1BD4680BD80B582B000AF00233B60C34B1B68002B02D0C14B1B689847C04B1A680123134002D0BF4B00221A60D8
:40158000BE4B1B78DAB220231340DBB2002B3CD0BB4B1A6880235B0013400AD0B94B1B889BB2C022920013439AB2B64B1A8001233B60B34B1A68012313400AD0B14B1B8822
:4015C0009BB29022920013439AB2AE4B1A8001233B603B68002B18D0A84B1B78DAB201231340DBB2002B01D0012300E00223A54A128892B291B21A1C0B1C13439BB29AB219
:40160000A04B1A809D4B00221A709C4B1B78DAB220231340DBB2002B00D1ACE1984B1A68102313401CD0984B10221A60934B1B78DAB201231340DBB2002B01D0012300E078
:401640000223904A128892B291B21A1C0B1C13439BB29AB28B4B1A80884B10221A70C0E1864B1B78DAB208231340DBB2002B29D0834B1A68022313400ED0834B02221A602D
:40168000804B1B889BB28822920013439AB27D4B1A8001233B6015E0784B1B78DAB201231340DBB2002B03D0744B25221A7009E0724B24221A70754B1B68002B02D0744B92
:4016C00010221A606D4B1B78DAB204231340DBB2002B00D113E1694B1B78DAB201231340DBB2002B5CD06B4B1A680823134034D0694B1A68694B19680F231940684B1B685C
:40170000CB18D31A7B607B68082B02D908237B600DE07B68002B0AD1624B624A1168624A0A401A6008237B6001233B6011E010E05E4B1A685A4B1B68D2185D4B1B68DBB254
:401740001370574B1B685A1C554B1A607B68013B7B607B68002BEBD11EE04E4B1A680423134019D0514B1A684D4B1B68D218504B1B68DBB213704A4B1B685A1C484B1A6005
:40178000474B1A68444B1B689A4203D2494B04221A6001E001233B60474B484A1A60AEE0374B1A680223134032D0374B02221A60434B1A68434B19680F231940414B1868FE
:4017C00080231B02034001D0012300E00023CB18D21A3B4B1A603A4B1A683B4B1A60294B1B889BB28422920013439AB2254B1A80364B364A1268802149020A431A60334B24
:40180000324A1168324A0A401A6001233B6076E0304B1A681023134066D015E0284B1A681A4B1B689A420ED22B4B2C4A1168244A12688A181278D2B21A60214B1B685A1C3B
:401840001F4B1A6000E005E01E4B1A680F231340082BE3D11A4B1A680C4B1B689A4202D10B4B40221A601E4B1E4A1A6047E0C046840100208C0E0640880E06409C01002030
:401880000C0F0640AC010020000F0640A8010020880F0640CC0F0640B801002008030640BC01002060000640FFFEFFFFB00100204003064068000640C00F0640ED0F00001D
:4018C000A001002008020640A401002004020640FFFFFEFF8C0F064040020640C0010020800F0640F30700003F4B1A684023134005D03E4B1A683E4B1A6001233B603B68AB
:40190000002B6ED03B4B3B4A11683B4A0A401A603A4B00221A603A4B00221A60394B1B78DAB202231340DBB2002B19D0364B1B78DAB201231340DBB2002B01D0092300E0C7
:401940000A23324A128892B291B21A1C0B1C13439BB29AB22D4B1A802B4B60221A7040E02B4B2C4A116820220A4001D0182200E010221A6035E0244B1B78DAB210231340EC
:40198000DBB2002B2DD1244B234A1268520052081A601D4B10221A70164B164A11681F4A0A401A60134B134A11681D4A0A401A60124B00221A60124B00221A60194B1A4A51
:4019C0001A601A4B1A4A1A601A4B1B4A1A601B4B1B4A1A60104B104A1268802109060A431A60BD4602B080BD8C0F0640A0010020A401002060000640FFFEFFFFC80F0640E4
:401A0000880F0640B40100209C010020AC010020680006406400064000000640FF5FFFFFFFFCFFFF800F0640ED0F0000C00F0640F3070000400F0640FF0F0000000F06409F
:401A40001703000080B582B000AF7860C046064B1A680F231340082BF9D0044B7A681A60BD4602B080BDC04608020740400207400230800804D0C0460138FDD1C046C046E0
:401A8000C0467047EFF3108072B6704780F310887047C046C046C04680B584B000AF786039607B68FB603B68DAB2FB681A70FB6801333A68120AD2B21A70FB6802333A68C4
:401AC000120CD2B21A70BD4604B080BD80B584B000AF78607B68FB60FB681B78DBB2BB60FB6801331B78DBB21B02BA681343BB60FB6802331B78DBB21B04BA681343BB6029
:401B0000BB68181CBD4604B080BDC046002934D00123002210B488422CD301242407A14204D2814202D209011B01F8E7E400A14204D2814202D249005B00F8E7884201D35A
:401B4000401A1A434C08A04202D3001B5C0822438C08A04202D3001B9C082243CC08A04202D3001BDC082243002803D01B0901D00909E3E7101C10BC7047002801D00020CD
:401B8000C04307B4024802A14018029003BDC046190000000029F0D003B5FFF7B9FF0EBC4243891A1847C0467047C046002B15D1002A13D1002900D1002807D003DB002038
:401BC000C043410802E080210906002007B4024801A14018029003BDD1FFFFFF03B4684601B5029800F028F8019B9E4602B00CBC7047C0469C460304F0B51B0C17043F0C31
:401C0000150C1E1C041C000C7E436B4347434543FB18300C1818874202D980235B02ED18030CED1863465C434A433604360CA118000480194919F0BDF0B583B0161C1F1C65
:401C40000090019100F02EF8041C0D1C221C2B1C301C391CFFF7CEFF009A019B121A8B410899201C0A604B60291C03B0F0BDC046F0B583B0141C1D1C0090019100F0EEF9F5
:401C8000221C2B1C061C0F1CFFF7B4FF009A019B121A8B410899301C0A604B60391C03B0F0BDC046F0B544465F4656464D46F0B41C1C85B0002900DADBE00F1C0021061C7E
:401CC0008A46101C191C002C00DAC9E00196009089468046002951D1B84200D871E000F07FFB002809D020234546311C1B1A85408740D940A8460F4386404246150C1304B4
:401D00001B0C291C381C9B46FFF700FF5B464343041C291C381C9946FFF73CFF330C08041843814509D94044631E804500D978E1814500D875E1023C40444946411A894664
:401D4000081C291CFFF7E2FE5A464243071C291C48469346FFF71EFF36040904360C0E43B34507D946447B1EB04502D8023FB34500D81F1C24042743002403E0B94211D9AF
:401D8000002400275246381C211C002A03D03B1C00215842A14105B03CBC90469946A246AB46F0BD081C00F01BFB041E00D0BFE0B94500D242E1019D0099071C8D42474177
:401DC000E0E7002804D101200021FFF79FFE8046404600F005FB002852D1414644460B043C1B1B0CA3460D0C00930124291C5846FFF78CFE009F81464743291C5846FFF73F
:401E0000C9FE330C090419438F4208D94B464144013B884502D88F4200D91AE19946C91B8B46081C291CFFF771FE009B291C4343071C58460093FFF7ADFE3604009D090442
:401E4000360C0E43B54207D946447B1EB04502D8023FB54200D81F1C49460E04374391E75246D243031C0C1C924600215842A1412CE7002746428F41012149428A4620E7A9
:401E800020231B1A4246351C82403C1CDD40DC4087402B1C150C3B43291C8640201C009317049046FFF732FE3F0C011C794381468B46201C291CFFF76DFE009C0904230C6A
:401EC00019438B450CD94B464144013B884500D9BDE08B4500D8BAE002225242914441445C460C1B201C291C0194FFF70FFE391C4143041C8B460198291CFFF74BFE009A85
:401F0000090413041B0C19438B4509D94144631E884500D997E08B4500D894E0023C41445B46CB1A49469B460B041C4300975DE7009D20231B1A4A468240DD401543391CD6
:401F4000009AD94082408846311C0092D9403A1C82400B1C134301932F0C2B041B0C391C40460293FFF7D2FD029A81464243391C40469346FFF70EFE019A0904130C194376
:401F80008B450AD94B464919013B8D425DD88B455BD902235B42994449195A468A1A101C391C0392FFF7B2FD029B80464343391C03989B46FFF7EEFD019A090413041B0CB6
:401FC00019438B450AD943464919013B8D4238D88B4536D902235B42984449195D464D1BAB464946009D0F04424617432A04120C3B042D0C1B0C380C111C594342436B43A5
:402000006843D3180D0C5B198C469A4202D98022520280181D0C401983450CD303D00024B0E61C1C89E665462A041B04120C9B18A6409E42F3D2013F0024A3E6002401277C
:40204000A0E69846CAE71C1C6AE79946A5E7994646E70222524291444144E0E6F0B55F4656464D464446F0B40D1C85B0061C924698460290019103921F1C141C8346A946BA
:40208000002B59D1AA4269D9101C00F0A9F900280AD020231B1A311CD94085400B1C2B43864084409946B346250C23041B0C291C48469846FFF72AFD4646071C4643291C79
:4020C0004846FFF767FD5A460904130C19438E4209D909197B1E8C4200D957E18E4200D854E1023F0919891B8946081C291CFFF70DFD43464343061C291C48469846FFF790
:4021000049FD5A46130409041B0C1943884508D90919731E8C4200D936E1023E884500D832E1380430430027391C05B03CBC90469946A246AB46F0BD019A934262D8181C0A
:4021400000F04EF9041E60D1019B9F4200D22CE1029F03998F4260410027E5E7002A04D101200021FFF7D2FC041C201C00F038F9002800D0B9E023042D1B1B0CA946260C0D
:4021800098460127311C4846FFF7C0FC41464143051C8A464846311CFFF7FCFC5A460804130C1843824507D900196B1E844202D8824500D910E11D1C5346C31A181C311CF7
:4021C0009A46FFF7A3FC41464143814688465046311CFFF7DFFC5A46130409041B0C194388450BD94B460919013B8C4200D9CFE0884500D8CCE002235B429944280449462E
:40220000084391E7002700208EE720231B1A424657468240DF401743524682400192321CDA40291CD9408540131C2B4302933D0C3B041B0C8846081C291C9A46FFF766FC7F
:40224000534643438146291C40469B46FFF7A2FC029A0904130C19438B4506D94B46C919013B8F4200D8ABE099465A468A1A101C291C9346FFF74AFC53464343291C8046AF
:4022800058469A46FFF786FC029A090415042D0C29438A4506D94346C919013B8F4200D886E098465746CF1BBA464946019F0804424610433D042D0C03043F0C1B0C020CE1
:4022C000291C594355437B437A43EB180F0CDB198C469D4202D980277F02D2191D0C521992455FD356D000271EE720231B1A311C2F1CD940DF4085400B1C84402B4386401E
:402300000193B3462304260C1B0C381C311C9846FFF7FCFB42464243051C311C381C9146FFF738FC019F09043B0C1943894507D909196B1E8C424DD889454BD9023D091965
:402340004A468A1A101C311C9246FFF7DFFB43464343071C311C50469946FFF71BFC019A090413041B0C1943894507D909197B1E8C422DD889452BD9023F09194B46CB1ADE
:402380002D0499462F43FDE61E1CCAE61F1CAAE6994633E761460A041B04120C9B18A6409E42A0D201380027BEE600270120BBE68A4500D875E702235B429844C91971E765
:4023C0008B4500D850E702235B429944C9194CE71F1CD3E71D1CB3E7023D0019ECE6C0461C2101231B04984201D3000C10391B0A984201D3000A08391B09984201D30009D6
:40240000043902A2105C40187047C04604030202010101010000000000000000014B18687047C0464401002070B50E4B0E4D0024ED1AAD101E1CAC4204D0A300F3589847B3
:402440000134F8E700F0F2FC084B094D0024ED1AAD101E1CAC4204D0A300F35898470134F8E770BD382E0000382E0000382E0000402E000010B50023934203D0CC5CC4545F
:402480000133F9E710BD031C8218934202D019700133FAE7704700000EB400B59CB01DAB04CB822202A992008A810A4A02908A604A6101225242CA81074A086110681D9ADA
:4024C000019300F06BF8029A002313701CB008BC03B01847FFFFFF7F44010020F0B58D6885B0071C0C1C03920193AB4245D390228B89D20013423DD06269032656430969EF
:402500002068F20F401A96190290021C0198013212187610964200D2161C381C5A050FD5311C00F021FB051E13D0029A2169FFF7A1FFA289184B134080221343A38111E061
:40254000321C00F065FB051E0CD1381C216900F0C3FA0C233B60A389402213430120A381404217E0029B2561ED1825606661019DF61AA6600198A84200D2019D2A1C2068DD
:40258000039900F090FAA2680020531BA36023685D19256005B0F0BD7FFBFFFFF0B59FB0039005938B890E1C171C19060FD53269002A0CD1402100F0D7FA3060306100286A
:4025C00003D103990C230B60C9E04023736106AD00236B6120236B763023AB763C1C2378002B03D1E21B029211D003E0252BF9D00134F4E70398311C3A1C029BFFF76EFF09
:40260000013000D1A6E06969029A8B186B612378002B00D19EE0012252426A606A4600235B3201342B60EB60AB601370AB654E4F2178381C052200F02BFA002807D0C71BEF
:402640002B680120B840184328600134EFE72B68D90603D56A4620215B3211701A0703D56A462B215B32117022782A2A01D0099B0EE0059A111D12680591002A01DB0992A5
:4026800004E05242EA60022213432B60013409E02278303A092A04D80A214B4301349B18F6E7099323782E2B18D163782A2B09D1059B02341A1D1B680592002B0DDA0123C4
:4026C0005B420AE0013400232278303A092A04D80A214B4301349B18F6E70793234F2178381C032200F0D4F9002806D0C71B2B684020B84018432860013421781C48062287
:40270000671C297600F0C4F9002812D0194B002B06D1059B0722073393430833059314E005AB00930398291C321C134B00E000BF07E005AB00930398291C321C0E4B00F0AB
:4027400091F804900499013104D06A69049953186B6143E7B3895A0601D40B9801E0012040421FB0F0BDC046F62D0000FC2D0000002E000000000000DD240000F7B5151C56
:4027800001930A698B68061C0C1C934200DA131C221C2B6043321278002A01D001332B602068800602D52B6802332B60216806270F401FD0231C43331B785A1E934122682B
:4027C00092061FD5E11840313020C870211C5A1C45310978A21840320233D17012E0221C301C019919320123089FB847013011D0009F01370097E0682968009F431A9F42AE
:40280000EDDBD7E7221C301C01994332089FB847013002D10120404223E0206806212B68E26801400025042903D1D51AEB43DB171D40A26823699A4201DDD31AED18002761
:402840000097009FAF420BDA221C301C01991A320123089FB8470130DCD0009F0137EFE70020FEBDF0B50D1C8BB0433506920590079304950B7E0C1C109A6E2B00D1A7E080
:4028800011D8632B22D009D8002B00D1B0E0582B00D0C0E045310B707B4D4EE0642B1CD0692B1AD0B7E0732B00D1A5E009D86F2B29D0702B00D0AEE00E68202333430B60DD
:4028C00036E0752B1FD0782B32D0A4E013680D1C191D423511601B689FE0216813680E0603D5191D11601E6805E04806F9D5191D116000215E5E644B002E3BDA049D2D22C2
:4029000076422A7036E0216813680E0603D5191D11601E6804E04806F9D5191D1E881160594B227E039308276F2A1ED00A271CE0231C78214533554D197011682368081D64
:40294000039510601E0601D50E6802E05806FBD50E88D90702D52022134323601027002E03D1226820239A432260231C002243331A7001E003930A276368A360002B03DB22
:402980002568042295432560002E02D1049D002B0ED0049D301C391CFFF7FCF80398013D435C301C2B70391CFFF7B0F8061EF1D1082F09D12168C90706D5626823699A4281
:4029C00002DC013D30232B70049E731B23612AE0086813684969050604D5181D10601B68196005E04606F8D5181D10601B68198000232361049D16E01368191D11601D6849
:402A0000281C00F03DF963682061984200D923612069606004E0251C42352B7001232361049E00233370079E05980096211C09AA069BFFF7A3FE013002D10120404221E071
:402A40002A1C059806992369079DA8470130F4D02668B60705D4099BE068984212DA181C10E00025E0680999431A9D42F3DA221C0598069919320123079EB0470130DCD04C
:402A80000135EFE70BB0F0BD072E0000182E0000C9B28218904204D003788B4202D00130F8E70020704770B5814201D300230CE08C18A042FAD28518131C013B0BD35142D5
:402AC0006618F65C6918CE54F7E7934203D0CC5CC4540133F9E770BD30B5002940D004390B68002B00DAC9181E4A1368141C002B02D14B60116033E099420FD208680A181A
:402B00009A4205D113685268C01808604A6000E04B60216024E08A4203D8131C5A68002AF9D11D685C198C420BD10968691858181960904214D114685268091919605A6067
:402B40000EE08C4202D90C23036009E008680C18944203D114685268001908604A60596030BDC0469801002070B50323CD1C9D430835061C0C2D01D20C2501E0002D3FDB67
:402B80008D423DD3204B1C681A1C211C002913D00868431B0DD40B2B02D90B60CC181EE08C4202D1636813601AE0486860600C1C16E00C1C4968E9E7144C2068002803D1C7
:402BC000301C00F04BF82060301C291C00F046F8431C15D0C41C03239C4384420AD12560201C0B300722231D9043C31A0BD05A42E25008E0211A301C00F030F80130EED118
:402C00000C233360002070BD9801002094010020F8B5061C0C1C151C002904D1111CFFF7A3FF041C18E0002A03D1FFF755FF2C1C12E000F02CF8A8420ED2301C291CFFF72D
:402C400093FF071E07D0211C2A1CFFF713FC301C211CFFF741FF3C1C201CF8BD38B5074C0023051C081C2360FDF7C2FD431C03D12368002B00D02B6038BDC046C401002034
:402C80000023C25C0133002AFBD1581E704704390B68181F002B02DAC8581B18181F70470000000000F0FF7F0100000019041A031B181C086B0100000D0A0D0A48656C6C2E
:402CC0006F20000020576F726C64210D0A0D0A0025642C20000000000D0A0A4C6167204572726F72210D0A0A000000000400000000300F40000400400F40000401000F40EE
:402D000028300F4008310F4020320F4013330F4002400F4003410F4002600F40820D405149FF4AFF4BFF4F0150185A045D095F016040624064406540668068806A806C8053
:402D40006E80C041C9FFCAFFCBFFCD83CE03CF01D018D280DA04DB04DD99DF01E040E240E440E540E680E880EA80EC80EE80420246824801740176807780D098D2080E0126
:402D80002E01300136013E01404145EC4720482349FF4AFF4BFF4D834E034F015018540158045A045B045C095D995F016040624064406540668068806A806C806E800602B7
:402DC00017801E801F8046824D044F0156025D045E805F0187809A809B809E02C080C480D090D6D06F20DA808720A720E6100201110100004300232D302B2000686C4C00A9
:402E00006566674546470030313233343536373839414243444546003031323334353637383961626364656600000000F8B5C046F8BC08BC9E467047E5020000DD080000F8
:402E4000F8B5C046F8BC08BC9E467047BD020000602E0000C8000020800000008000000000000000C8010020C0F1FF0F006CDC0280BB0000300000000000C05D00000000DD
:402E800000000000000000000000000000000000000000000000000000000000F42D00000000000000000000000000000000000000000000000000000000000000000000F1
:402EC00000000000000000000000000000000000000000000000000000000000E40000200000000000000000000000000000000000000000000000000000000000000000CE
:402F00000000000000000000000000000000000000000000000000000000000000000000000000000000000000000000000000000000000000000000000000000000000091
:402F40000000000000000000000000000000000000000000000000000000000000000000000000000000000000000000000000000000000000000000000000000000000051
:402F80000000000000000000000000000000000000000000000000000000000000000000000000000000000000000000000000000000000000000000000000000000000011
:402FC00000000000000000000000000000000000000000000000000000000000000000000000000000000000000000000000000000000000000000000000000000000000D1
:0200000490303A
:020000002EBF11
:0200000490402A
:200000000000000000000000000000000000000000000000000000000000000000000000E0
:0200000490501A
:0C000000000204C81193110104D7405203
:0200000490600A
:0100000001FE
:00000001FF