:4000000000100020110000008D0500008D05000080B500AF00F0E6FA80B584B000AF021CFB1D1A70204A3B1C0B3312781A701F4A3B1C0A3312781A700423013BFB6018E0F5
:400040001B4B1868391C0B31FA68131C5B009B18C3185B780B70164B1868391C0A31FA68131C5B009B18C3189B780B70FB68013BFB60FB68002B0ADB0D4B1968FA68131CF1
:400080005B009B185B5CFA1D12789A42D8D9094B3A1C0B3212781A60074B3A1C0A3212781A60BD4604B080BDCCF1FF0FCDF1FF0F180100201CFF0B4020FF0B4080B500AF02
:4000C000194B194A12688021C9020A431A603020FFF7A2FF154B164A1278D2B21A60052000F052FB134B35221A60134B134A1A60134B20221A60134B10221A60124B3022C4
:400100001A60124B802212061A60074B8022D2021A600F4B0F4A1A600F4B104A1A60104B104A1A60BD4680BD00010B4028FF0B40FDF1FF0F2CFF0B4004010B4006000080A2
:4001400008020240340202403C02024008010B40000002400B000080400002402200008080000240AF04008080B582B000AF72B6474B01221A70FB1D00221A7023E0FB1DA5
:400180001A78131C5B009B185B00424A9B183B603B681A78597809020A43997809040A43DB781B0613431A1C3B6819795B791B020B439BB2101C191C00F092FAFB1D1A782A
:4001C000FB1D01321A70FB1D1B78012BD7D9324A324B101C191C00F093FA314BCC2292021A60304BEE2212021A602F4B99221A602E4BC32252001A602D4B18221A602D4BBE
:40020000D822D2011A602C4BD82212011A602B4B02221A602A4B31221A602A4B02221A60294B992212041A60284B992212041A60274B902292041A60264B992212041A60A3
:40024000254B01221A60254B02221A60244B244A1278D2B202210A43D2B21A70214B214A1278D2B23C218A43D2B214210A43D2B21A701B4B1A4A1278D2B216210A43D2B2F7
:400280001A70FFF71BFF00F07BFABD4602B080BD1C700F40B0160000BC160000DC160000040001400C00014010000140080004400001044008010440080304400004044090
:4002C000080404401804044000500F4010500F4018500F4030500F402000004000800F4000700F4001700F4010B5064C2378002B07D1054B002B02D0044800E000BF0123BB
:40030000237010BD90010020000000005C16000008B5084B002B03D00748084900E000BF07480368002B03D0064B002B00D0984708BDC046000000005C1600009401002018
:40034000C80000200000000080B500AF024B01221A60BD4680BDC046AC01002080B584B000AF00F025FB3E4B181C00F08BFB00F01FFA00F0D7FB62B63A4B181C00F036FC9B
:40038000394B181C00F07EFB0023FB603B1C0B3301221A70354B354A126801218A431A60C046334B1B68002BFBD0304B2F4A126801210A431A60FB68181C00F081F8031C07
:4003C000F0225203101C191C00F05EF8031C1B14DAB23B1C0A3364321A703B1C0A331B78391C244A081C111C1A1C00F033FD3B1C181C00F047FB3B1C0A331B78181C00F0C8
:400400006BFAFA681C4B9A420ADD3B1C0B3300221A70164B154A126804210A431A600DE0FA68164B9A4209DA3B1C0B3301221A700E4B0E4A126804218A431A603B1C0B3387
:400440001B78002B04D0FB680D4A9B18FB6003E0FB680C4A9B18FB60054B00221A6099E760160000490300009416000000000440AC010020A41600001E920100E26DFEFFD8
:4004800018100000E8EFFFFFB0B584B000AFF860B960F9683960C9177960B9680A1CC9170B1C3868796800F075FC021C0B1C1904140C0C431D14231C181CBD4604B0B0BD0A
:4004C00080B584B000AF786079683A1C0C323B1C0833081C111C1A1C202300F005F8FB68181CBD4604B080BD80B58CB000AFF860B9607A603B60234BBB6200237B62FB68CF
:400500003B623B68122B00DD12233B600023FB622AE03B6A5B14FB617A6AFB6A1A41FB695340FA69D21ABB6AD318BB61BA6AFB6A1A41FB695A40FB69D21A7B6AD3187B61A3
:40054000114BFA6A9200D258FB695340FA69D21A3B6AD3183B61BB69BB627B697B623B693B62FB6A0133FB62FA6A3B689A42D0DB7B68BA6A1A60BB687A6A1A60BD460CB005
:4005800080BDC046749B0000CC00002080B500AFFEE7C04680B584B000AF78600F4B1A687B68D3181A1C0E4BD31A802B09DC0B4B1B68FB60094B1A687B68D218074B1A60E5
:4005C00007E000F009FC031C0C221A6001235B42FB60FB68181CBD4604B080BD14010020D001002080B586B000AF224B7B61224B3B61204B7B6135E03B691B68FB603B699D
:400600005B68BB603B699B683B6000237B600CE0FB681A68BB681A60BB680433BB60FB680433FB607B6804337B607A683B689A42EED13B69DB683B6000237B6008E0BB6824
:4006400000221A60BB680433BB607B6804337B607A683B689A42F2D13B6910333B617B69013B7B617B69002BC6D100F0BBFBFFF775FEFEE7010000000419000080B582B0B2
:4006800000AF00237B600FE07B68032B04D8104B7A689200D35800E00E4B0F4A796889008B507B6801337B607B682F2BECD9FFF75BFD0A4B00221A608023DB058022D205B1
:4006C000126801210A431A60BD4602B080BDC046000000008D05000000000020C000002080B582B000AF786039607A683B68101C00211A1C00F0A5FBBD4602B080BDC046F6
:4007000080B586B000AF7860396000233B6100237B612EE07B699B007A68D3181B68BB603B1C0F33BA681A70BB68FF229343BB6017E03B695B003A68D3181B781A1CBB688F
:40074000D3183A69520039688A1852781A703B6901333B613B1C0F331A783B1C0F33013A1A703B1C0F331B78002BE2D17B6901337B617B69072BCDD9BD4606B080BDC0464F
:4007800080B500AFBD4680BD80B582B000AF021CBB1D1A80BB1D1B88044A12785343181C00F07EFABD4602B080BDC0462401002080B500AF064B1B78002B04D100F00AF8F3
:4007C000034B01221A7000F049F8BD4680BDC046B001002090B583B000AF1E4B1B78DAB2FB1D3F218A431A701A4BFA1D127809210A43D2B21A70184B174A1278D2B20121B9
:400800000A43D2B21A70C72000F038F8C72000F053F8412000F060F8032000F06DF8002000F08CF8BC1D00F045FA031C23700A4B094A1278D2B210210A43D2B21A70BB1DAB
:400840001B78181C00F03AFA00F028F8BD4603B090BDC04672000F4093000F4080B500AF054B054A1278D2B2802149420A43D2B21A70BD4680BDC04672000F4080B582B04B
:4008800000AF021CFB1D1A70034BFA1D12781A70BD4602B080BDC04603000F4080B500AF01E000F065F800F059F8031C1A1C10231340F6D1BD4680BD80B582B000AF021C9D
:4008C000FB1D1A70034BFA1D12781A70BD4602B080BDC04643000F4080B582B000AF021CFB1D1A70034BFA1D12781A70BD4602B080BDC04623000F4080B582B000AF021C66
:40090000FB1D1A700C4B0C4A1278D2B203218A43D2B21A70084B084A1278D2B2D1B2FA1D1278101C03220240D2B20A43D2B2D2B21A70BD4602B080BD73000F4080B582B073
:4009400000AF021CFB1D1A70034BFA1D12781A70BD4602B080BDC04683000F4080B500AF024B1B78DBB2181CBD4680BD63000F4080B500AF024B1B78DBB2181CBD4680BD89
:4009800053000F4080B500AF00F028F8BD4680BD80B500AF054B054A1268802109060A431A6000F017F8BD4680BDC0460000064080B500AF064B1B78002B04D1FFF7E2FFC3
:4009C000034B01221A70FFF7E3FFBD4680BDC046B401002080B500AFBD4680BD80B500AF174B184A1A60184B00221A60174B01221A60174B174A1A60174B07221A60174B21
:400A000000221A60164B01221A60164B114A1A60154B00221A60154B00221A60144B00221A60144B00221A60134B00221A60134B00221A60124B00221A60BD4680BDC046C5
:400A4000000006400B000002400006404800064000030640070000800403064010030640440006400002064004020640880E0640C80E0640480F0640080F0640C80F06406C
:400A8000880F064080B584B000AF78600023FB6009E07A68FB68D3181B78181C00F014F9FB680133FB607A68FB68D3181B78002BEFD1BD4604B080BD90B583B000AFC7206C
:400AC00000F05CF8C72000F073F8FC1D00F0F2F8031C23700A4B0A4A1278D2B210210A43D2B21A70FB1D1B78181C00F0E7F800F06FF8002000F028F8BD4603B090BDC0464A
:400B000091000F4080B500AF054B054A1278D2B2802149420A43D2B21A70BD4680BDC04671000F4080B500AF064B1B78002B04D1FFF7C2FF034B01221A70FFF7E3FFBD4662
:400B400080BDC046BC01002080B582B000AF021CFB1D1A70034BFA1D12781A70BD4602B080BDC04681000F4080B500AF024B1B78DBB2181CBD4680BD61000F4080B582B062
:400B800000AF021CFB1D1A70034BFA1D12781A70BD4602B080BDC04621000F4080B500AF024B1B78DBB2181CBD4680BD41000F4080B582B000AF021CFB1D1A70034BFA1D55
:400BC00012781A70BD4602B080BDC04601000F4080B500AF01E0FFF7E1FFFFF7C5FF031C1A1C08231340F6D1BD4680BD80B582B000AF786000F04AF87B68181C00F008F843
:400C0000032000F011F800F037F8BD4602B080BD80B582B000AF7860024B7A681A64BD4602B080BD0000002090B585B000AF021CFB1D1A700623FB603C1C0B3400F03AF8B4
:400C4000031C23700B4B0B4A1268C021101C8843011CFA1D1078FA68041C9440221C0A431A603B1C0B331B78181C00F027F8BD4605B090BD00E400E080B500AF024B012226
:400C80001A60BD4680BDC04600E100E080B500AF024B01221A60BD4680BDC04680E100E00230800804D0C0460138FDD1C046C046C0467047EFF3108072B6704780F310889E
:400CC0007047C046C046C04680B582B000AF7860C046064B1A680F231340082BF9D0044B7A681A60BD4602B080BDC0460802064040020640002934D00123002210B4884267
:400D00002CD301242407A14204D2814202D209011B01F8E7E400A14204D2814202D249005B00F8E7884201D3401A1A434C08A04202D3001B5C0822438C08A04202D3001BAE
:400D40009C082243CC08A04202D3001BDC082243002803D01B0901D00909E3E7101C10BC7047002801D00020C04307B4024802A14018029003BDC046190000000029F0D08A
:400D800003B5FFF7B9FF0EBC4243891A1847C0467047C0469C460304F0B51B0C17043F0C150C1E1C041C000C7E436B4347434543FB18300C1818874202D980235B02ED186E
:400DC000030CED1863465C434A433604360CA118000480194919F0BD014B18687047C0468C01002070B50E4B0E4D0024ED1AAD101E1CAC4204D0A300F35898470134F8E755
:400E000000F06EFD084B094D0024ED1AAD101E1CAC4204D0A300F35898470134F8E770BDEC180000EC180000EC180000F418000010B50023934203D0CC5CC4540133F9E7C0
:400E400010BD031C8218934202D019700133FAE7704700000EB400B59CB01DAB04CB822202A992008A810A4A02908A604A6101225242CA81074A086110681D9A019300F0C0
:400E80006BF8029A002313701CB008BC03B01847FFFFFF7F8C010020F0B58D6885B0071C0C1C03920193AB4245D390228B89D20013423DD062690326564309692068F20FF8
:400EC000401A96190290021C0198013212187610964200D2161C381C5A050FD5311C00F021FB051E13D0029A2169FFF7A1FFA289184B134080221343A38111E0321C00F003
:400F000065FB051E0CD1381C216900F0C3FA0C233B60A389402213430120A381404217E0029B2561ED1825606661019DF61AA6600198A84200D2019D2A1C2068039900F0E5
:400F400090FAA2680020531BA36023685D19256005B0F0BD7FFBFFFFF0B59FB0039005938B890E1C171C19060FD53269002A0CD1402100F0D7FA30603061002803D10399DC
:400F80000C230B60C9E04023736106AD00236B6120236B763023AB763C1C2378002B03D1E21B029211D003E0252BF9D00134F4E70398311C3A1C029BFFF76EFF013000D1CD
:400FC000A6E06969029A8B186B612378002B00D19EE0012252426A606A4600235B3201342B60EB60AB601370AB654E4F2178381C052200F02BFA002807D0C71B2B68012094
:40100000B840184328600134EFE72B68D90603D56A4620215B3211701A0703D56A462B215B32117022782A2A01D0099B0EE0059A111D12680591002A01DB099204E0524237
:40104000EA60022213432B60013409E02278303A092A04D80A214B4301349B18F6E7099323782E2B18D163782A2B09D1059B02341A1D1B680592002B0DDA01235B420AE00B
:40108000013400232278303A092A04D80A214B4301349B18F6E70793234F2178381C032200F0D4F9002806D0C71B2B684020B84018432860013421781C480622671C297642
:4010C00000F0C4F9002812D0194B002B06D1059B0722073393430833059314E005AB00930398291C321C134B00E000BF07E005AB00930398291C321C0E4B00F091F8049007
:401100000499013104D06A69049953186B6143E7B3895A0601D40B9801E0012040421FB0F0BDC046AA180000B0180000B418000000000000990E0000F7B5151C01930A6940
:401140008B68061C0C1C934200DA131C221C2B6043321278002A01D001332B602068800602D52B6802332B60216806270F401FD0231C43331B785A1E9341226892061FD5FC
:40118000E11840313020C870211C5A1C45310978A21840320233D17012E0221C301C019919320123089FB847013011D0009F01370097E0682968009F431A9F42EDDBD7E70A
:4011C000221C301C01994332089FB847013002D10120404223E0206806212B68E26801400025042903D1D51AEB43DB171D40A26823699A4201DDD31AED1800270097009F08
:40120000AF420BDA221C301C01991A320123089FB8470130DCD0009F0137EFE70020FEBDF0B50D1C8BB0433506920590079304950B7E0C1C109A6E2B00D1A7E011D8632B95
:4012400022D009D8002B00D1B0E0582B00D0C0E045310B707B4D4EE0642B1CD0692B1AD0B7E0732B00D1A5E009D86F2B29D0702B00D0AEE00E68202333430B6036E0752BF4
:401280001FD0782B32D0A4E013680D1C191D423511601B689FE0216813680E0603D5191D11601E6805E04806F9D5191D116000215E5E644B002E3BDA049D2D2276422A707C
:4012C00036E0216813680E0603D5191D11601E6804E04806F9D5191D1E881160594B227E039308276F2A1ED00A271CE0231C78214533554D197011682368081D0395106005
:401300001E0601D50E6802E05806FBD50E88D90702D52022134323601027002E03D1226820239A432260231C002243331A7001E003930A276368A360002B03DB25680422CD
:4013400095432560002E02D1049D002B0ED0049D301C391CFFF712FD0398013D435C301C2B70391CFFF7C6FC061EF1D1082F09D12168C90706D5626823699A4202DC013D39
:4013800030232B70049E731B23612AE0086813684969050604D5181D10601B68196005E04606F8D5181D10601B68198000232361049D16E01368191D11601D68281C00F087
:4013C0003DF963682061984200D923612069606004E0251C42352B7001232361049E00233370079E05980096211C09AA069BFFF7A3FE013002D10120404221E02A1C059819
:4014000006992369079DA8470130F4D02668B60705D4099BE068984212DA181C10E00025E0680999431A9D42F3DA221C0598069919320123079EB0470130DCD00135EFE779
:401440000BB0F0BDBB180000CC180000C9B28218904204D003788B4202D00130F8E70020704770B5814201D300230CE08C18A042FAD28518131C013B0BD351426618F65C2B
:401480006918CE54F7E7934203D0CC5CC4540133F9E770BD30B5002940D004390B68002B00DAC9181E4A1368141C002B02D14B60116033E099420FD208680A189A4205D18E
:4014C00013685268C01808604A6000E04B60216024E08A4203D8131C5A68002AF9D11D685C198C420BD10968691858181960904214D114685268091919605A600EE08C42B4
:4015000002D90C23036009E008680C18944203D114685268001908604A60596030BDC046C401002070B50323CD1C9D430835061C0C2D01D20C2501E0002D3FDB8D423DD36E
:40154000204B1C681A1C211C002913D00868431B0DD40B2B02D90B60CC181EE08C4202D1636813601AE0486860600C1C16E00C1C4968E9E7144C2068002803D1301C00F0C0
:401580004BF82060301C291C00F046F8431C15D0C41C03239C4384420AD12560201C0B300722231D9043C31A0BD05A42E25008E0211A301C00F030F80130EED10C233360E8
:4015C000002070BDC4010020C0010020F8B5061C0C1C151C002904D1111CFFF7A3FF041C18E0002A03D1FFF755FF2C1C12E000F02CF8A8420ED2301C291CFFF793FF071E37
:4016000007D0211C2A1CFFF713FC301C211CFFF741FF3C1C201CF8BD38B5074C0023051C081C2360FEF7B6FF431C03D12368002B00D02B6038BDC046C80100200023C25C05
:401640000133002AFBD1581E704704390B68181F002B02DAC8581B18181F70470000000057656C636F6D6520746F20426162792057617463683A2056756767657379737435
:40168000656D202D205675676765746573740D0A0000000052756E6E696E6720746573740D0A0A0025642C20000000000400000000300F40000400400F40000402000F40F4
:4016C0001F300F4012310F4064320F4043330F4002400F4007410F4002600F40810D830D9201AE01B001B601BE01C045C5ECC602C807C9FFCAFFCBFFCF01D018D280D40129
:40170000D804DA04DB04DC03DD33DF01E040E240E440E540E680E880EA80EC80EE800F8017801E801F8046804D044F8157405D045E805F0176807780C210C480D080D210EF
:40174000D6D0010D022004400560096B0A1A0B040D0D0E081210140115021642170D18041AC2240225482645271629212B062D10308031103220341F350F364037603B201C
:401780005280580C590C5B045C115D105F0180408215843F8505870288038A8C8B088E809040922A95019722983399049A0C9B229D089F17A108A310A430A507A60CA83F10
:4017C000A907AC40B07FB320B480B71FBA03BE10C030C105C5D1C720C823C9FFCAFFCBFFCDA0CF04D018D203D405D80FD90FDA0FDB0FDC11DD11DF01E040E2C0E440E540FF
:40180000E6C0E8C0EAC0ECC0EEC00016020104080510068007020A480C200D080E4010201160150819021A441C141D181E021F0A200221042244231224082510268027486F
:4018400029162C202F0A3020310832403504370839183C063E403F104010482249015002520159015A045B406401668067026950768078017F018E81AF80C0FFC27AC42755
:40188000CA77CC4ECEF6D002D208D60BDE11E2506F20DA80571063088F14AF20D440D840EE10010A100A00004300232D302B2000686C4C00656667454647003031323334B3
:4018C0003536373839414243444546003031323334353637383961626364656600000000F8B5C046F8BC08BC9E467047110300007D060000F8B5C046F8BC08BC9E467047BB
:40190000E902000018190000C8000020C80000004000000000000000000000000FC90000B1760000B63E0000D51F0000FA0F0000FF070000FF030000FF010000FF000000A4
:401940007F0000003F0000001F0000000F0000000700000003000000010000000000000000000000D0010020C0F1FF0F006CDC0280BB0000300000000000C05D00000000EE
:4019800000000000000000000000000000000000000000000000000000000000A8180000000000000000000000000000000000000000000000000000000000000000000067
:4019C000000000000000000000000000000000000000000000000000000000002C01002000000000000000000000000000000000000000000000000000000000000000009A
:401A000000000000000000000000000000000000000000000000000000000000000000000000000000000000000000000000000000000000000000000000000000000000A6
:401A40000000000000000000000000000000000000000000000000000000000000000000000000000000000000000000000000000000000000000000000000000000000066
:401A80000000000000000000000000000000000000000000000000000000000000000000000000000000000000000000000000000000000000000000000000000000000026
:401AC00000000000000000000000000000000000000000000000000000000000000000000000000000000000000000000000000000000000000000000000000000000000E6
:0200000490303A
:0200000075BCCD
:0200000490402A
:200000000000000000000000000000000000000000000000000000000000000000000000E0
:0200000490501A
:0C000000000204C81193110104D0874FC6
:0200000490600A
:0100000001FE
:00000001FF