:400000000010002011000000910F0000910F000080B500AF00F0C0FF80B584B000AF021CFB1D1A70204A3B1C0B3312781A701F4A3B1C0A3312781A700423013BFB6018E0FA
:400040001B4B1868391C0B31FA68131C5B009B18C3185B780B70164B1868391C0A31FA68131C5B009B18C3189B780B70FB68013BFB60FB68002B0ADB0D4B1968FA68131CF1
:400080005B009B185B5CFA1D12789A42D8D9094B3A1C0B3212781A60074B3A1C0A3212781A60BD4604B080BDCCF1FF0FCDF1FF0F140100201CFF0B4020FF0B4080B500AF06
:4000C000224B224A12688021C9020A431A601820FFF7A2FF1E4B19221A60052001F084FA1C4B1D4A1278D2B21A60052001F064FB164B164A1168194A0A401A60184B194A07
:400100001A60194B30221A60184B10221A60184B20221A60174B21221A60174B11221A60164B802212061A60154B164A1A60164B164A1A60164B174A1A60174B174A1A6036
:40014000174B184A1A60BD4680BDC04600010B402CFF0B4028FF0B40E5F1FF0FFFFFFBFF04010B4006000080080202400C02024034020240380202403C02024008010B40B1
:4001800000000240020000804000024005000080800002400E0000800400024019000080440002405702008080B582B000AF72B6584B01221A70FB1D00221A7023E0FB1D79
:4001C0001A78131C5B009B185B00534A9B183B603B681A78597809020A43997809040A43DB781B0613431A1C3B6819795B791B020B439BB2101C191C00F04CFFFB1D1A781A
:40020000FB1D01321A70FB1D1B78012BD7D9434A434B101C191C00F04DFF424BE02212011A80414B01221A70404BEE2212041A603F4BC02292021A603E4B33221A603E4BAF
:40024000EE2212021A603D4BEE221A603C4B30221A603C4B902292021A603B4B30221A603A4BB02252021A60394B03221A60394B36221A60384B394A1A60394B03221A60A1
:40028000384B24221A60384B992212041A60374B374A1A60374B802212051A60364BC02292041A60354B992212041A60344BB02212031A60334B992212041A60324B8022F5
:4002C00092041A60314B05221A60314B06221A60304B304A1278D2B202210A43D2B21A702D4B2D4A1278D2B23C218A43D2B214210A43D2B21A70274B264A1278D2B21621D0
:400300000A43D2B21A70FFF7D9FE00F013FFBD4602B080BD1C700F40603300006C3300009433000000600F4002600F400000014004000140080001400C0001401000014000
:4003400000000440080004400001044008010440000204400802044008030440801D1800000404400804044000500F4010500F400400990014500F4018500F4020500F4017
:4003800028500F4030500F4034500F402000004000800F4000700F4001700F4010B5064C2378002B07D1054B002B02D0044800E000BF0123237010BD28010020000000006C
:4003C0003832000008B5084B002B03D00748084900E000BF07480368002B03D0064B002B00D0984708BDC04600000000383200002C010020C80000200000000080B584B090
:4004000000AFFA235B00181C01F0B2F962B600F043F81D4B181C01F047FB0023FB601B4B1A4A126840218A431A60C046184B1B78002BFBD0154B154A126840210A431A60F6
:4004400000F0C6F800F09CF8124B1B6802331A78104B1B6803331B78101C191C00F0F4FA00F03AF9031CBB60BB68181C00F0B6FB031C7B607B68181C00F038FC00F02EF81D
:40048000034B00221A70CAE7443200000003044044010020A801002080B500AF01F0A8FA01F0D4FE0A4B181C01F034FF00F0F0F800F0C6F800F0E4F8021C064B1A6000F094
:4004C0008FFA00F04BFC021C034B1A60BD4680BD21060000A8010020B801002080B582B000AF094B1B681B687B607B68012B07DD064B1B6804337A68D2B21A7000F008F824
:40050000BD4602B080BDC046B8010020A801002090B589B000AF01F00FFF3B1C154A13CA13C313CA13C31168196012791A713B1C181C01F0B9FA104B1B68043390221A7051
:400540000D4B1B68023300221A700B4B1B68033300221A7001F0ECF9084B084A126801218A431A60054B054A126802218A431A60FEE7C0466C320000A8010020000204408B
:4005800090B589B000AF104B1A683B1C1F3352781A703B1C1F331B780F2B11D13B1C0B4A13CA13C313CA13C313CA13C31168196012791A713B1C181C01F076FAFFF7A8FF86
:4005C000BD4609B090BDC046A80100208C32000090B589B000AF00F00DF9031C012B15D13B1C0C4A13CA13C313CA13C312681A603B1C181C01F058FA074B1B680433A0226E
:400600001A70064B00221A60FFF782FFBD4609B090BDC046B8320000A8010020C401002080B500AF054B1B78012B01D1FFF770FF024B01221A70BD4680BDC0464401002056
:4006400080B500AF0D4BFB221A700C4BF0225A700A4B00229A70094B0022DA70074B00221A71082000F010FE044B052004211A1C00F024FE00F078FDBD4680BD84010020D3
:4006800080B500AF014B181CBD4680BD8401002080B582B000AF01F055FA0C4B181C01F09FF800237B6008E0094B6820191C052200F0AAF87B6801337B607B68092BF3DDFF
:4006C000044B00221A70BD4602B080BDCD090000D43200004901002090B583B000AF3A4B181C00F015F9394B181C00F035F9384B1A68384B1A60344B1A68A4235B00101CC2
:40070000191C00F047FB021C314B1B68D218304B1A602F4B1A68304B9A4206DA2C4B1B68B42149045A182A4B1A60294B1A68B4231B049A4205DD264B1B6828495A18244BB6
:400740001A60224B1B68181C00F014FB041C1F4B5B68181C00F00EFB031CE3187B6000233B607A681E4B9A4225DD7A681D4B9A4221DC164B5A68154B1B68101C191C00F00C
:4007800057FB031C184A9B18181C00F09DFB031C3B600F4B1B68124A101C191C00F0FAFA041C124A3B68101C191C00F0F3FA031CE218074B1A60064B1B680D495B18181CAC
:4007C000BD4603B090BDC046540100204C010020600100205801002000004CFF000098FE66E6000065660100209201009A1900000000FBFF80B500AF024B1B78DBB2181C36
:40080000BD4680BD4901002080B584B000AF3960FB1D011C1970BB1D1A700023FB6013E0FB685B003A68D3181A78FB685B003968CB185B78F91D0978081C111C1A1C00F0CC
:400840003FF8FB680133FB60BB1D1A78FB689A42E6DCBD4604B080BD80B584B000AF0A1CFB1D011C1970BB1D1A70FB1D1B78181C002101F0F5F9031C002B19D1BB1D1B7814
:40088000181C01F057FB031C002B11D1FB1D1B78181C012101F06CFA031C002B08D1012001F0AEFB021C3B1C0F331A7001F0E4FA3B1C0F331B78181CBD4604B080BDC046F5
:4008C00080B582B000AFFB1D1870BB1D19707B1D1A70FB1D1B78181C002101F0C1F9031C002B11D1BB1D1B78181C01F023FB031C002B09D17B1D1B78181C01F01BFB031C91
:40090000002B01D101F0B8FABD4602B080BDC04690B585B000AF786068204421FFF79CFF031C1C1C68204321FFF796FF031C1B029BB2E3189AB23B1C0E331A803B1C0E3338
:4009400000229B5E034A5A437B681A60BD4605B090BDC0469C0F000090B585B000AF786068203E21FFF778FF031C1C1C68203D21FFF772FF031C1B029BB2E3189AB23B1C3F
:400980000E331A8068204021FFF766FF031C1C1C68203F21FFF760FF031C1B029BB2E3189AB23B1C0C331A803B1C0E3300215B5EDA007B681A607B6804333A1C0C3200210C
:4009C000525ED2001A60BD4605B090BD80B500AF024B01221A70BD4680BDC0464901002080B500AF0F4B00221A700F4B00221A700E4B00221A600E4B00221A600D4B002214
:400A00001A600D4B01221A700C4B00221A6000F041FF0B4B00221A600A4B00221A60BD4680BDC046AC01002090010020A4010020B40100209401002091010020C00100208B
:400A4000980100208C01002080B584B000AF0A1CFB1D011C1970BB1D1A70554B1B78FA1D12789A4206D1534B1B78BA1D12789A4200D19AE03B1C0F3300221A70FB1D1B7882
:400A8000002B14D1BB1D1B78002B10D13B1C0F3301221A70484B1B78002B07D0474B181C01F002F8444B00221A7062E061E0FB1D1B78082B14D1BB1D1B78C82B10D13B1C79
:400AC0000F3301221A703C4B1B78012B07D03C4B181C00F0E9FF384B01221A7049E048E0FB1D1B78102B14D1BB1D1B78782B10D13B1C0F3301221A702F4B1B78022B07D0C5
:400B0000304B181C00F0D0FF2B4B02221A7030E02FE0FB1D1B78202B14D1BB1D1B78502B10D13B1C0F3301221A70234B1B78032B07D0254B181C00F0B7FF1F4B03221A70B3
:400B400017E016E0FB1D1B780C2B12D1BB1D1B78A02B0ED13B1C0F3301221A70164B1B78042B06D0194B181C00F09EFF124B04221A703B1C0F331B78002B16D00C4BFA1D92
:400B800012781A700B4BBA1D12781A70BB1D1B780F4A5A430F4B1A60FB1D1A78131CDB009B185B001A1C0C4B1A60BD4604B080BDAC0100209001002068010020E0320000D5
:400BC000F8320000103300002833000040330000CD0C0000B4010020A401002090B587B000AF7860394B1A68394B9A4203DD394B00221A7007E0354B1A68374B9A4202DAAB
:400C0000344B01221A70334B1B78002B07D02F4B1A68324B1B68D2182C4B1A6006E02B4B1A682E4B1B68D21A284B1A602C4B1C68264B1B68181C00F0E7F8031C201C191C69
:400C400000F0A8F8031C7B617A697B68D31A3B61244B1B683A69D21AA4235B00101C191C00F0B4F8031CFB603A69A4235B00101C191C00F08FF8021C1B4B1B68D2181A4B8D
:400C80001A60F023DA023B69101C191C00F082F8041CC0235A01FB68101C191C00F07AF8031CE418104B1B6880225202101C191C00F070F8031CE318BB600A4B3A691A6089
:400CC000BB68181CBD4607B090BDC046C00100201F92010091010020E16DFEFFA4010020B4010020980100208C01002080B584B000AF78603B1C0F3300221A707B68002BBD
:400D000004DA3B1C0F33F6221A7006E07B68002B03DD3B1C0F330A221A707B68002B00DA01335B107B607B68C822D2039B187B607B68002B09DD7B681B14D9B23B1C0E33BC
:400D40003A1C0F3212788A181A703B1C0E331B78181C00F01BFEBD4604B080BD80B582B000AF034B7B607B68181CBD4602B080BD9401002080B582B000AF78607B68002BD1
:400D800002DA7B685B4200E07B68181CBD4602B080BDC046B0B584B000AFF860B960F9683960C9177960B9680A1CC9170B1C3868796801F0FFFD021C0B1C1904140C0C43EF
:400DC0001D14231C181CBD4604B0B0BDF0B585B000AFF860B960FA68151CD217161C2A0C340414432B04BA683A60D2177A60181C211C3A687B6801F0B9FD031C0C1C181CF8
:400E0000BD4605B0F0BDC04680B584B000AF786079683A1C0C323B1C0833081C111C1A1C202300F063F8FB68181CBD4604B080BD80B586B000AF786039607B68181CFFF718
:400E400099FF031C01333B613B68002B16DB3A683B69D21A39683B69CB18101C191CFFF7B5FF031CFB60164AFB68101C191CFFF791FF031C124AD31A7B6115E03A683B6924
:400E8000D21839693B68CB1A101C191CFFF79EFF031CBB600A4ABB68101C191CFFF77AFF031C084AD31A7B617B68002B02DA7B695B4200E07B69181CBD4606B080BDC04610
:400EC00010C90000305B020080B582B000AF78607A68054B101C191CFFF75CFF031C181CBD4602B080BDC046B84B390080B58CB000AFF860B9607A603B60234BBB6200237F
:400F00007B62FB683B623B68122B00DD12233B600023FB622AE03B6A5B14FB617A6AFB6A1A41FB695340FA69D21ABB6AD318BB61BA6AFB6A1A41FB695A40FB69D21A7B6A20
:400F4000D3187B61114BFA6A9200D258FB695340FA69D21A3B6AD3183B61BB69BB627B697B623B693B62FB6A0133FB62FA6A3B689A42D0DB7B68BA6A1A60BB687A6A1A60F3
:400F8000BD460CB080BDC046749B0000CC00002080B500AFFEE7C04680B586B000AF224B7B61224B3B61204B7B6135E03B691B68FB603B695B68BB603B699B683B60002334
:400FC0007B600CE0FB681A68BB681A60BB680433BB60FB680433FB607B6804337B607A683B689A42EED13B69DB683B6000237B6008E0BB6800221A60BB680433BB607B68AA
:4010000004337B607A683B689A42F2D13B6910333B617B69013B7B617B69002BC6D102F0DDF8FFF7EBF9FEE7010000009436000080B582B000AF00237B600FE07B68032BF0
:4010400004D8104B7A689200D35800E00E4B0F4A796889008B507B6801337B607B682F2BECD9FFF7A1F80A4B00221A608023DB058022D205126801210A431A60BD4602B03B
:4010800080BDC04600000000910F000000000020C000002080B582B000AF786039607A683B68101C00211A1C02F0BEF8BD4602B080BDC04680B586B000AF78603960002370
:4010C0003B6100237B612EE07B699B007A68D3181B68BB603B1C0F33BA681A70BB68FF229343BB6017E03B695B003A68D3181B781A1CBB68D3183A69520039688A18527887
:401100001A703B6901333B613B1C0F331A783B1C0F33013A1A703B1C0F331B78002BE2D17B6901337B617B69092BCDD9BD4606B080BDC04680B500AFBD4680BD80B500AF68
:4011400000F02CF8BD4680BD80B500AF054B054A1268802109060A431A6000F017F8BD4680BDC0460000064080B500AF064B1B78002B04D1FFF7E2FF034B01221A70FFF78C
:40118000E3FFBD4680BDC0466C01002080B500AF0A2000F0B7FABD4680BDC04680B500AF234B00221A60234B234A1A60234B234A12680C210A431A60214B224A1A60224B3A
:4011C00000221A60214B224A1A60224B1D4A1A60214B02221A600A2000F0AAFA0A20012100F03CFA1D4B0A20191C00F011FA1C4B00221A601B4B00221A601B4B3222FF32C7
:401200001A601A4B00221A60194B04221A60194B00221A60184B00221A70184B00221A70174B00221A80174B00221A70BD4680BD000006406000064000F8004070000640CB
:40124000000306400701008004030640100306401000FE00000206400402064005130000C80E0640880E0640480F0640080F0640C80F0640880F0640D1010020D00100206E
:40128000D2010020D401002080B584B000AF7860094B1B68FB60FB68FF229343FB607B685A00FF231340FA681343FB60024BFA681A60BD4604B080BD1003064080B584B0CB
:4012C00000AFF860B9607A607B68002B10D00A2000F02EFA084B7A681A60FB689AB2074B1A80BB689AB2064B1A800A2000F00AFABD4604B080BDC046CC010020CA01002030
:40130000C801002080B584B000AFA04B1B68002B02D09E4B1B6898470023FB609C4B1B683B609C4B1B687B603A680223FF33134044D0994B984A1268520052081A603A68C6
:401340004023134026D0954B1B78DBB210221343DAB2924B1A70924B1A7801231340DBB2002B0FD08F4B1B781A1C8F4B1B889A4210D08A4B1B78DBB208221343DAB2874B1A
:401380001A7007E0854B1B78DBB202221343DAB2824B1A70854B00221A60854B04221A607B4B844A1A607E4B00221A707A4B7A4A1268802109060A431A60E4E07A680823C5
:4013C000134059D07C4B1B68FB60754B1B78012B04D0032B36D0002B19D041E0724B1A88764B1B889A420ED2754B1A686E4B1B88D318FA68D2B21A706B4B1B8801339AB2BF
:40140000694B1A8030E0664B03221A702CE06D4B1B881A1CFB689A420BD9FB68DAB2614B1A70FB689AB2604B1A805D4B01221A701AE05C4B1B781A1C5B4B1A80584B03224E
:401440001A7011E0604B604A1268802149020A431A605D4B5C4A11685C4A0A401A6003E0002000F07BF9C046594B1A680F231340A8D14F4B04221A603A68202313402BD040
:40148000434B40221A60534B524A1268802149020A431A604F4B4F4A11684C4A0A401A604D4B474A11683F4A12788A181278D2B21A603D4B1B88FB603A4B1B7801339AB258
:4014C000394B1A80394B01221A60314B3A681A607B68042213437B607A680423134021D0314B1A88374B1B889A420FD23A4B344A11682D4A12888A181278D2B21A602A4B62
:401500001B8801339AB2284B1A8002E0324BFF221A60324B1A680F231340022BE0D1304B01221A603A68102313402CD03A682023134005D1164B3A681A601B4B1B88FB60F4
:401540000223BB60174B1B781A1CFB689A420AD0134B1A7801231340DBB2002B03D0BB6808221343BB60BB68DBB23A68D2B21340DAB20A4B1B78DBB21343DAB2074B1A704F
:40158000074B00221A70BD4604B080BD70010020400F0640000E064000000640D0010020D1010020D4010020D2010020880F0640C00F0640FF0F000040030640C80100203C
:4015C000CC010020CA01002004030640FFFFFEFF08030640040206404002064008020640800F0640000000000230800804D0C0460138FDD1C046C046C0467047EFF31080AB
:4016000072B6704780F310887047C046C046C04680B584B000AF021C3960FB1D1A7080239B05FB60FB1D1B781F2B02D9002000F095F8FB1D1B7810339B00FA68D3181B6822
:40164000BB60FB1D1B7810339B00FA68D3183A681A60BB68181CBD4604B080BD90B587B000AF0A1CFB1D011C1970BB1D1A70BB1D1B78032B02D9002000F070F8FB1D1B780A
:401680001F2B02D9002000F069F8FB1D1A7803231340DB0006337B613C1C1334FFF7AEFF031C2370FB1D1B789B08DBB29B0014495B181B68FB607B690322111C99400B1C33
:4016C000DA43FB681340FB60BB1D1A787B69111C99400B1CFA681343FB60FB1D1B789B08DBB29B00064A9B18FA681A603B1C13331B78181CFFF786FFBD4607B090BDC046ED
:4017000000E400E080B582B000AF021CFB1D1A70064BFA1D11781F220A400121081C9040021C1A60BD4602B080BDC04600E100E080B582B000AF021CFB1D1A70064BFA1DEE
:4017400011781F220A400121081C9040021C1A60BD4602B080BDC04680E100E080B582B000AF021CFB1D1A7001BEBD4602B080BD80B582B000AF786008E00C4B1B68181C03
:40178000FFF732FF7B680A4A9B187B607A6880231B029A42F1D8074B1B687A685343181CFFF722FFBD4602B080BDC046240100200080FFFF1C01002080B582B000AF021C32
:4017C000BB1D1A80BB1D1B88044A12785343181CFFF70AFFBD4602B080BDC0462001002080B582B000AF786000F04AF87B68181C00F008F8002000F011F800F037F8BD46C0
:4018000002B080BD80B582B000AF7860024B7A681A64BD4602B080BD0000002090B585B000AF021CFB1D1A700623FB603C1C0B34FFF7E4FE031C23700B4B0B4A1268C02178
:40184000101C8843011CFA1D1078FA68041C9440221C0A431A603B1C0B331B78181CFFF7D1FEBD4605B090BD00E400E080B500AF024B01221A60BD4680BDC04600E100E09B
:4018800080B500AF024B01221A60BD4680BDC04680E100E080B500AF064B1B78002B04D100F00AF8034B01221A7000F031F8BD4680BDC0467401002080B582B000AF124BB7
:4018C0001B78DAB2FB1D3F218A431A700E4BFA1D127809210A43D2B21A700C4B0B4A1278D2B201210A43D2B21A70C72000F02EF8C72000F03BF8642000F048F8032000F076
:4019000055F8BD4602B080BD71000F4090000F4080B500AF054B054A1278D2B2802149420A43D2B21A70BD4680BDC04671000F4080B500AF044B044A1278D1B27F220A4032
:40194000D2B21A70BD4680BD71000F4080B582B000AF021CFB1D1A70034BFA1D12781A70BD4602B080BDC04600000F4080B582B000AF021CFB1D1A70034BFA1D12781A7074
:40198000BD4602B080BDC04640000F4080B582B000AF021CFB1D1A70034BFA1D12781A70BD4602B080BDC04620000F4080B582B000AF021CFB1D1A700C4B0C4A1278D2B259
:4019C00003218A43D2B21A70084B084A1278D2B2D1B2FA1D1278101C03220240D2B20A43D2B2D2B21A70BD4602B080BD70000F4080B500AF064B1B78002B04D100F00AF8B0
:401A0000034B01221A7000F019F8BD4680BDC0467501002080B500AF054B06221A70054B47221A70044B00221A70BD4680BDC04623000F4033000F4083000F4090B583B026
:401A400000AFFC1DFFF7DAFD031C2370084B084A1278D2B210210A43D2B21A7000F04EF8FB1D1B78181CFFF7CDFDBD4603B090BD93000F4080B582B000AF021CFB1D1A7050
:401A8000C046074B1B78DBB21A1C04231340F8D1044BFA1D12781A70BD4602B080BDC04663000F4042000F4080B584B000AF78603B1C0E3300221A800F4B1B78002B18D03C
:401AC0000FE03B1C0E331B887A68D3181B78181CFFF7D0FF3B1C0E331A883B1C0E3301321A803B1C0E331B887A68D3181B78002BE7D1BD4604B080BD7501002080B500AFD8
:401B0000044B044A1268802109060A431A60BD4680BDC0460400024080B500AF00F02CF8BD4680BD80B500AF054B054A1268802109060A431A6000F017F8BD4680BDC0469A
:401B40000000074080B500AF064B1B78002B04D1FFF7E2FF034B01221A70FFF7E3FFBD4680BDC0467801002080B500AF0B20FFF7C9FDBD4680BDC04680B500AF234B234AFD
:401B800012680C210A431A60214B00221A60214B214A1A60214B224A1A60224B00221A60214B00221A60214B1D4A1A60204B00221A600B20FFF7BCFD0B200221FFF74EFD3E
:401BC0001C4B0B20191CFFF723FD1B4B00221A601A4B00221A601A4B00221A60194B1422FF321A60184B00221A60184B00221A60174B10221A70174B00221A80164B002202
:401C00001A60164B00221A60BD4680BD700007400000074060000740C7080080000307400701008004030740100307400002074004020740E1230000C80E0740880E0740EB
:401C4000480F0740080F0740C80F0740880F0740D5010020DC010020E8010020E001002080B584B000AF786039600023FB600423BB60384B1B78DBB2102B66D1364B1A680E
:401C80000123134002D00823BB605EE00B20FFF74FFD7B685A00FF2313407B603B68002B03D12C4B24221A7006E02A4B25221A707B68012213437B60284B7A681A60284BCF
:401CC000284A1A60284B02221A60C046244B1A680823FF331340F9D0214B1A680423134002D00023BB601CE01D4B1A680223134002D00223BB6014E0194B1A68012313403E
:401D000007D0144B10221A700123BB600123FB6007E0104B10221A7080235B00BB600123FB600F4B0822FF321A60FB68002B0CD00E4B0E4A1268520052081A600B4B0B4AC8
:401D40001268802109060A431A60BB68181CBD4604B080BDD50100206400074040020740000F074017030000680007400000074080B584B000AF786039600023FB60042369
:401D8000BB60374B1B78DAB220231340DBB2002B60D07B685A00FF2313407B603B68002B03D12F4B24221A7006E02D4B25221A707B68012213437B602A4B2B4A1A6000F0B6
:401DC00073F9C046294B1A6801231340FAD1284B7A681A60C046234B1A680823FF331340F9D0204B1A680423134002D00023BB601CE01C4B1A680223134002D00223BB6015
:401E000014E0184B1A680123134007D0144B10221A700123BB600123FB6007E0104B10221A7080235B00BB600123FB600D4B0822FF321A60FB68002B0CD00E4B0D4A12684B
:401E4000520052081A600B4B0A4A1268802109060A431A60BB68181CBD4604B080BDC046D5010020000F07401703000068000740400207400000074080B582B000AF002332
:401E80007B6004233B60264B1B78DAB220231340DBB2002B3ED0234B234A116820220A4001D0182200E010221A60C0461F4B1A681223FF331340F9D01C4B1A68102313403E
:401EC00002D000233B600EE0184B1A680123134004D001233B6001237B6004E080235B003B6001237B60114B1222FF321A600C4B10221A707B68002B0CD00D4B0C4A12689A
:401F0000520052081A600A4B094A1268802109060A431A603B68181CBD4602B080BDC046D50100206800074064000740000F07400000074080B584B000AF78600023FB60B8
:401F40000423BB602A4B1B78DAB220231340DBB2002B48D0274B7A681A60C046264B1A680823FF331340F9D0234B1A680423134005D01F4B60221A700023BB601FE01E4B8A
:401F80001A680223134005D0194B60221A700223BB6014E0184B1A680123134007D0144B10221A700123BB600123FB6007E0104B10221A7080235B00BB600123FB600E4BB3
:401FC0000822FF321A60FB68002B0CD00B4B0B4A1268520052081A60084B084A1268802109060A431A60BB68181CBD4604B080BDD501002040020740000F0740000007405A
:4020000080B584B000AF786001235B42FB601F4B1B78DAB220231340DBB2002B31D0C0461B4B1A680423134005D11A4B1A680223FF331340F4D0164B1A680423134010D0EC
:40204000154B1B68FB60124B04221A607B68002B03D1124B04221A6013E00C4B60221A700FE00C4B0E4A1A600E4B0E4A1268520052081A600B4B0B4A1268802109060A4365
:402080001A60FB68181CBD4604B080BDD5010020C00F0740000F07404003074068000740170300000000074080B582B000AF264B1B687B60C04600F051F8031C002BFAD0E7
:4020C000002000F059F8214B204A1168204A0A401A60204B1F4A1268520052081A607A682023134011D0002000F046F80320FFF763FB012000F040F8C04600F063F8031CB7
:40210000002BFAD00320FFF757FB002000F034F80320FFF751FB104B01221A600D4B0D4A1268802109060A431A60084B074A1168074A0A40E02109030A431A60012000F069
:402140001BF8BD4602B080BD6400074000000140FFFFF0FF000007406800074080B500AF044B1A68202313405B09DBB2181CBD4680BDC0460400044080B584B000AF021C57
:40218000FB1D1A700E4B1B68DAB23B1C0F3310218A431A70FB1D1B781B01DAB210231340D9B23B1C0F333A1C0F3212780A431A70034B3A1C0F3212781A60BD4604B080BD22
:4021C0000000044080B500AF044B1A68102313401B09DBB2181CBD4680BDC0460400044090B583B000AFC72000F05CF8C72000F073F8FC1DFFF702FA031C23700A4B0A4AF3
:402200001278D2B210210A43D2B21A70FB1D1B78181CFFF7F7F900F06FF8002000F028F8BD4603B090BDC04692000F4080B500AF054B054A1278D2B2802149420A43D2B240
:402240001A70BD4680BDC04672000F4080B500AF064B1B78002B04D1FFF7C2FF034B01221A70FFF7E3FFBD4680BDC0468001002080B582B000AF021CFB1D1A70034BFA1D59
:4022800012781A70BD4602B080BDC04682000F4080B500AF024B1B78DBB2181CBD4680BD62000F4080B582B000AF021CFB1D1A70034BFA1D12781A70BD4602B080BDC04684
:4022C00021000F4080B500AF024B1B78DBB2181CBD4680BD41000F4080B582B000AF021CFB1D1A70034BFA1D12781A70BD4602B080BDC04601000F4080B500AF01E0FFF7C7
:40230000E1FFFFF7C5FF031C1A1C08231340F6D1BD4680BD80B582B000AF786000F056F87B68181C00F014F8032000F01DF800F043F8BD4602B080BD80B500AF00F046F893
:40234000024B181C00F004F8BD4680BD910F000080B582B000AF7860024B7A689A64BD4602B080BD0000002090B585B000AF021CFB1D1A701623FB603C1C0B34FFF73EF9A2
:40238000031C23700A4B0A4A11680A4A1140FA1D1078FA68041C9440221C0A431A603B1C0B331B78181CFFF72DF9BD4605B090BD00E400E0FFFF3FFF80B500AF024B0422D6
:4023C0001A60BD4680BDC04600E100E080B500AF024B04221A60BD4680BDC04680E100E080B582B000AF00233B60C34B1B68002B02D0C14B1B689847C04B1A680123134030
:4024000002D0BF4B00221A60BE4B1B78DAB220231340DBB2002B3CD0BB4B1A6880235B0013400AD0B94B1B889BB2C022920013439AB2B64B1A8001233B60B34B1A680123E7
:4024400013400AD0B14B1B889BB29022920013439AB2AE4B1A8001233B603B68002B18D0A84B1B78DAB201231340DBB2002B01D0012300E00223A54A128892B291B21A1CD4
:402480000B1C13439BB29AB2A04B1A809D4B00221A709C4B1B78DAB220231340DBB2002B00D1ACE1984B1A68102313401CD0984B10221A60934B1B78DAB201231340DBB2D4
:4024C000002B01D0012300E00223904A128892B291B21A1C0B1C13439BB29AB28B4B1A80884B10221A70C0E1864B1B78DAB208231340DBB2002B29D0834B1A6802231340E9
:402500000ED0834B02221A60804B1B889BB28822920013439AB27D4B1A8001233B6015E0784B1B78DAB201231340DBB2002B03D0744B25221A7009E0724B24221A70754BF8
:402540001B68002B02D0744B10221A606D4B1B78DAB204231340DBB2002B00D113E1694B1B78DAB201231340DBB2002B5CD06B4B1A680823134034D0694B1A68694B19684F
:402580000F231940684B1B68CB18D31A7B607B68082B02D908237B600DE07B68002B0AD1624B624A1168624A0A401A6008237B6001233B6011E010E05E4B1A685A4B1B68A7
:4025C000D2185D4B1B68DBB21370574B1B685A1C554B1A607B68013B7B607B68002BEBD11EE04E4B1A680423134019D0514B1A684D4B1B68D218504B1B68DBB213704A4BDB
:402600001B685A1C484B1A60474B1A68444B1B689A4203D2494B04221A6001E001233B60474B484A1A60AEE0374B1A680223134032D0374B02221A60434B1A68434B196800
:402640000F231940414B186880231B02034001D0012300E00023CB18D21A3B4B1A603A4B1A683B4B1A60294B1B889BB28422920013439AB2254B1A80364B364A126880218E
:4026800049020A431A60334B324A1168324A0A401A6001233B6076E0304B1A681023134066D015E0284B1A681A4B1B689A420ED22B4B2C4A1168244A12688A181278D2B2FC
:4026C0001A60214B1B685A1C1F4B1A6000E005E01E4B1A680F231340082BE3D11A4B1A680C4B1B689A4202D10B4B40221A601E4B1E4A1A6047E0C0467C0100208C0E074063
:40270000880E0740D50100200C0F0740DC010020000F0740F0010020880F0740CC0F0740F801002008030740E801002060000740FFFEFFFFE40100204003074068000740AC
:40274000C00F0740ED0F0000D801002008020740E001002004020740FFFFFEFF8C0F074040020740EC010020800F0740F30700003F4B1A684023134005D03E4B1A683E4B41
:402780001A6001233B603B68002B6ED03B4B3B4A11683B4A0A401A603A4B00221A603A4B00221A60394B1B78DAB202231340DBB2002B19D0364B1B78DAB201231340DBB265
:4027C000002B01D0092300E00A23324A128892B291B21A1C0B1C13439BB29AB22D4B1A802B4B60221A7040E02B4B2C4A116820220A4001D0182200E010221A6035E0244BFB
:402800001B78DAB210231340DBB2002B2DD1244B234A1268520052081A601D4B10221A70164B164A11681F4A0A401A60134B134A11681D4A0A401A60124B00221A60124B81
:4028400000221A60194B1A4A1A601A4B1A4A1A601A4B1B4A1A601B4B1B4A1A60104B104A1268802109060A431A60BD4602B080BD8C0F0740D8010020E00100206000074093
:40288000FFFEFFFFC80F0740880F0740F4010020D5010020DC010020680007406400074000000740FF5FFFFFFFFCFFFF800F0740ED0F0000C00F0740F3070000400F0740AB
:4028C000FF0F0000000F074017030000002934D00123002210B488422CD301242407A14204D2814202D209011B01F8E7E400A14204D2814202D249005B00F8E7884201D360
:40290000401A1A434C08A04202D3001B5C0822438C08A04202D3001B9C082243CC08A04202D3001BDC082243002803D01B0901D00909E3E7101C10BC7047002801D00020FF
:40294000C04307B4024802A14018029003BDC046190000000029F0D003B5FFF7B9FF0EBC4243891A1847C0467047C046002B15D1002A13D1002900D1002807D003DB00206A
:40298000C043410802E080210906002007B4024801A14018029003BDD1FFFFFF03B4684601B5029800F028F8019B9E4602B00CBC7047C0469C460304F0B51B0C17043F0C63
:4029C000150C1E1C041C000C7E436B4347434543FB18300C1818874202D980235B02ED18030CED1863465C434A433604360CA118000480194919F0BDF0B583B0161C1F1C98
:402A00000090019100F02EF8041C0D1C221C2B1C301C391CFFF7CEFF009A019B121A8B410899201C0A604B60291C03B0F0BDC046F0B583B0141C1D1C0090019100F0EEF927
:402A4000221C2B1C061C0F1CFFF7B4FF009A019B121A8B410899301C0A604B60391C03B0F0BDC046F0B544465F4656464D46F0B41C1C85B0002900DADBE00F1C0021061CB0
:402A80008A46101C191C002C00DAC9E00196009089468046002951D1B84200D871E000F07FFB002809D020234546311C1B1A85408740D940A8460F4386404246150C1304E6
:402AC0001B0C291C381C9B46FFF700FF5B464343041C291C381C9946FFF73CFF330C08041843814509D94044631E804500D978E1814500D875E1023C40444946411A894697
:402B0000081C291CFFF7E2FE5A464243071C291C48469346FFF71EFF36040904360C0E43B34507D946447B1EB04502D8023FB34500D81F1C24042743002403E0B94211D9E1
:402B4000002400275246381C211C002A03D03B1C00215842A14105B03CBC90469946A246AB46F0BD081C00F01BFB041E00D0BFE0B94500D242E1019D0099071C8D424741A9
:402B8000E0E7002804D101200021FFF79FFE8046404600F005FB002852D1414644460B043C1B1B0CA3460D0C00930124291C5846FFF78CFE009F81464743291C5846FFF771
:402BC000C9FE330C090419438F4208D94B464144013B884502D88F4200D91AE19946C91B8B46081C291CFFF771FE009B291C4343071C58460093FFF7ADFE3604009D090475
:402C0000360C0E43B54207D946447B1EB04502D8023FB54200D81F1C49460E04374391E75246D243031C0C1C924600215842A1412CE7002746428F41012149428A4620E7DB
:402C400020231B1A4246351C82403C1CDD40DC4087402B1C150C3B43291C8640201C009317049046FFF732FE3F0C011C794381468B46201C291CFFF76DFE009C0904230C9C
:402C800019438B450CD94B464144013B884500D9BDE08B4500D8BAE002225242914441445C460C1B201C291C0194FFF70FFE391C4143041C8B460198291CFFF74BFE009AB7
:402CC000090413041B0C19438B4509D94144631E884500D997E08B4500D894E0023C41445B46CB1A49469B460B041C4300975DE7009D20231B1A4A468240DD401543391C09
:402D0000009AD94082408846311C0092D9403A1C82400B1C134301932F0C2B041B0C391C40460293FFF7D2FD029A81464243391C40469346FFF70EFE019A0904130C1943A8
:402D40008B450AD94B464919013B8D425DD88B455BD902235B42994449195A468A1A101C391C0392FFF7B2FD029B80464343391C03989B46FFF7EEFD019A090413041B0CE8
:402D800019438B450AD943464919013B8D4238D88B4536D902235B42984449195D464D1BAB464946009D0F04424617432A04120C3B042D0C1B0C380C111C594342436B43D7
:402DC0006843D3180D0C5B198C469A4202D98022520280181D0C401983450CD303D00024B0E61C1C89E665462A041B04120C9B18A6409E42F3D2013F0024A3E600240127AF
:402E0000A0E69846CAE71C1C6AE79946A5E7994646E70222524291444144E0E6F0B55F4656464D464446F0B40D1C85B0061C924698460290019103921F1C141C8346A946EC
:402E4000002B59D1AA4269D9101C00F0A9F900280AD020231B1A311CD94085400B1C2B43864084409946B346250C23041B0C291C48469846FFF72AFD4646071C4643291CAB
:402E80004846FFF767FD5A460904130C19438E4209D909197B1E8C4200D957E18E4200D854E1023F0919891B8946081C291CFFF70DFD43464343061C291C48469846FFF7C2
:402EC00049FD5A46130409041B0C1943884508D90919731E8C4200D936E1023E884500D832E1380430430027391C05B03CBC90469946A246AB46F0BD019A934262D8181C3D
:402F000000F04EF9041E60D1019B9F4200D22CE1029F03998F4260410027E5E7002A04D101200021FFF7D2FC041C201C00F038F9002800D0B9E023042D1B1B0CA946260C3F
:402F400098460127311C4846FFF7C0FC41464143051C8A464846311CFFF7FCFC5A460804130C1843824507D900196B1E844202D8824500D910E11D1C5346C31A181C311C29
:402F80009A46FFF7A3FC41464143814688465046311CFFF7DFFC5A46130409041B0C194388450BD94B460919013B8C4200D9CFE0884500D8CCE002235B4299442804494660
:402FC000084391E7002700208EE720231B1A424657468240DF401743524682400192321CDA40291CD9408540131C2B4302933D0C3B041B0C8846081C291C9A46FFF766FCB2
:40300000534643438146291C40469B46FFF7A2FC029A0904130C19438B4506D94B46C919013B8F4200D8ABE099465A468A1A101C291C9346FFF74AFC53464343291C8046E1
:4030400058469A46FFF786FC029A090415042D0C29438A4506D94346C919013B8F4200D886E098465746CF1BBA464946019F0804424610433D042D0C03043F0C1B0C020C13
:40308000291C594355437B437A43EB180F0CDB198C469D4202D980277F02D2191D0C521992455FD356D000271EE720231B1A311C2F1CD940DF4085400B1C84402B43864050
:4030C0000193B3462304260C1B0C381C311C9846FFF7FCFB42464243051C311C381C9146FFF738FC019F09043B0C1943894507D909196B1E8C424DD889454BD9023D091998
:403100004A468A1A101C311C9246FFF7DFFB43464343071C311C50469946FFF71BFC019A090413041B0C1943894507D909197B1E8C422DD889452BD9023F09194B46CB1A10
:403140002D0499462F43FDE61E1CCAE61F1CAAE6994633E761460A041B04120C9B18A6409E42A0D201380027BEE600270120BBE68A4500D875E702235B429844C91971E797
:403180008B4500D850E702235B429944C9194CE71F1CD3E71D1CB3E7023D0019ECE6C0461C2101231B04984201D3000C10391B0A984201D3000A08391B09984201D3000908
:4031C000043902A2105C40187047C0460403020201010101000000000000000070B50E4B0E4D0024ED1AAD101E1CAC4204D0A300F35898470134F8E700F03AFA084B094DF3
:403200000024ED1AAD101E1CAC4204D0A300F35898470134F8E770BD7C3600007C3600007C36000084360000031C8218934202D019700133FAE770470000000028F8FF7F79
:40324000010000000D0A0A57656C636F6D6520746F204261627920576174636820567567676573797374656D0D0A0A000D0A0A0A2053485554444F574E20414B5449564519
:40328000524554200D0A0A0A000000000D0A0A0A20436F6E746F6C6C6572206C756B6B657220767567676573797374656D6574200D0A0A0A000000000D0A0A0A20454E4404
:4032C00053544F5020414B54495645524554200D0A0A0A0019041A051B181C086B0100000D0A0A767567676574696C7374616E643A20300D0A0A00000D0A0A7675676765E3
:4033000074696C7374616E643A20410D0A0A00000D0A0A767567676574696C7374616E643A20420D0A0A00000D0A0A767567676574696C7374616E643A20430D0A0A0000AF
:403340000D0A0A767567676574696C7374616E643A204D616E75656C0D0A0A000400000000300F40000400400F40000402000F406E300F4037310F4066320F4048330F400E
:4033800004400F400B410F4004420F4003430F4002600F40820D830F043F0544078208400A2A0B080C400D080E150F171033128C14031521168C1782183019071A8C1D659C
:4033C0001F02204024BF2508271029673080311F327F356037803A0C4030410545014720482149FF4AFF4BFF4DA04F0450185203580C590C5A0C5B0C5C115D115F0160401D
:4034000062C06440654066C068C06AC06CC06EC080028205861089088A1A8B068D0D940195029602970D98049A029D0B9F04A208A50DA901AB06AE20B220B41FB50FBB209C
:40344000C045C5ECC602C807C9FFCAFFCBFFCF01D018D280D80CD90CDA04DB04DC11DD12DF01E040E240E440E540E680E880EA80EC80EE8000540401051809080A800B0897
:403480000C200D08130A15421740181019081B011C041D181F082041211122C02520270829182D082F083128324036803708384039103B083C604108468048324B084D01FF
:4034C0004F845002574069106B02774079407D40C077C26EC49CCA66CC5ECE3ED082D218DE18024004090610081C0A020C0C0E110F0112401420160318101A0C24142880F5
:403500002C102F013040321F3301342036803E514032410445E046BC480E49FF4AFF4BFF4EF04F44500C52805401580459045A045B045C235D235F0166C06A406B02858017
:40354000861C8715881C8A438C418E0E9020944195739616970C9B089E40A173A304A608A92AAA43AB44AD03AF04B01AB130B220B30FB40FB5C0B640B922BA22BB08BE4472
:40358000BF01C005C504C9FFCA07CBFFCC40CD20CEF0CF05D008D401D804D904DA04DB04DC33DD33DF01E040E1A8E240E3200044012004440520068009480A800B020C1083
:4035C0000E100F80102816281780184019651E501F602004210822122608288029212A402E803108321038083F8044904508460448204A024D024E40500C52045540566022
:4036000059565D015E405F047680860888208BA08D108E088F019101930497809E80A340AD10AF40B301C0F7C27DC4E6CA1DCC06CE12D0E0D208D6DFE280E640E8026F0266
:403640007308DA80DC200F40670887408B048F089F08AF02C220D880E440EA1052025401D401D604AE02B001E801100E11010000F8B5C046F8BC08BC9E467047C5030000BE
:4036800031100000F8B5C046F8BC08BC9E4670479D030000A8360000C800002060000000D800000000000000000000000FC90000B1760000B63E0000D51F0000FA0F000075
:4036C000FF070000FF030000FF010000FF0000007F0000003F0000001F0000000F0000000700000003000000010000000000000000000000C0F1FF0F00366E01C05D00004B
:40370000180000000000E02E000000000000000000000000000000000000000000000000000000000000000000000000000000000000000000000000000000000000000063
:403740000000000000000000000000000000000000000000000000000000000000000000000000000000000000000000000000000000000000000000000000000000000049
:403780000000000000000000000000000000000000000000000000000000000000000000000000000000000000000000000000000000000000000000000000000000000009
:4037C00000000000000000000000000000000000000000000000000000000000000000000000000000000000000000000000000000000000000000000000000000000000C9
:403800000000000000000000000000000000000000000000000000000000000000000000000000000000000000000000000000000000000000000000000000000000000088
:0200000490303A
:02000000D148E5
:0200000490402A
:200000000000000000000000000000000000000000000000000000000000000000000000E0
:0200000490501A
:0C000000000204C81193110104D9E2DBD6
:0200000490600A
:0100000001FE
:00000001FF